:100000000C949E010C94C6010C94C6010C94C6017C
:100010000C94C6010C94C6010C94C6010C94C60144
:100020000C94C6010C94C6010C94B6200C94332198
:100030000C94C6010C94C6010C94C6010C94C60124
:100040000C94C6010C94C6010C94C6010C94C60114
:100050000C94C6010C94C6010C94C6010C94BD23EB
:100060000C94C6010C948B230C9465230C94C6014C
:100070000C94C6010C94C6010C94C6010C94C601E4
:100080000C94C6010C94C6010C94C6010C94C601D4
:100090000C94C6010C94C6010C94C6010C94C601C4
:1000A0000C94C6010C94C6010C94C60105A84CCD55
:1000B000B2D44EB93836A9020C50B9918688083CA2
:1000C000A6AAAA2ABE000000803F6364696E6F7012
:1000D000737578585B0005010902A1010901A100AF
:1000E00005091901290815002501950875018102E6
:1000F00005010930093109381581257F75089503F7
:100100008106C0C0444F574E0053555350454E448E
:10011000005550004556547C484F53545553427C2B
:1001200000080B00020202000009040000010202A4
:100130000000052400100105240101010424020629
:100140000524060001070581031000400904010091
:10015000020A0000000705020240000007058302B2
:100160004000000403090412010002EF02014041B3
:1001700023368000010102030141726475696E6FCC
:10018000204C4C430041726475696E6F204C656F62
:100190006E6172646F0000000000240027002A00D6
:1001A0002D00300000000000250028002B002E004C
:1001B00031000404040404030405020202020403DF
:1001C00002020202060606060606040402020204F1
:1001D0000404080201104080401020408040800844
:1001E00002040180402010020110801020404020B5
:1001F0000000000200090F0000030401000C0000D1
:100200000000000000000000000000000000004F9F
:100210004B7C48454C4C4F7C414D535F424F4152C3
:10022000447C004552527C4E4F4E43450007060524
:10023000040100080A0B0C0D09637C777BF26B6FDD
:10024000C53001672BFED7AB76CA82C97DFA594704
:10025000F0ADD4A2AF9CA472C0B7FD9326363FF791
:10026000CC34A5E5F171D8311504C723C318960520
:100270009A071280E2EB27B27509832C1A1B6E5A7B
:10028000A0523BD6B329E32F8453D100ED20FCB11B
:100290005B6ACBBE394A4C58CFD0EFAAFB434D33F3
:1002A0008545F9027F503C9FA851A3408F929D380D
:1002B000F5BCB6DA2110FFF3D2CD0C13EC5F9744F6
:1002C00017C4A77E3D645D197360814FDC222A90BC
:1002D0008846EEB814DE5E0BDBE0323A0A490624AB
:1002E0005CC2D3AC629195E479E7C8376D8DD54E89
:1002F000A96C56F4EA657AAE08BA78252E1CA6B425
:10030000C6E8DD741F4BBD8B8A703EB5664803F6A8
:100310000E613557B986C11D9EE1F8981169D98ED5
:10032000949B1E87E9CE5528DF8CA1890DBFE6423C
:100330006841992D0FB054BB1600072411241FBE2D
:10034000CFEFDAE0DEBFCDBF14E0A0E0B1E0ECE437
:10035000FCE602C005900D92A237B107D9F729E05B
:10036000A2E7B4E001C01D92A238B207E1F711E0A4
:10037000CEE9D1E004C02197FE010E94F82FCD39CB
:10038000D107C9F70E94C4240C9424360C940000B1
:10039000CF92DF92EF92FF920F931F93CF93DF9351
:1003A00000D000D0CDB7DEB79C01205F3F4FE5ED18
:1003B000F7E0DC014D91CD014193A217B307C9F7D6
:1003C00081E020E130E08E010B5F1F4FF901EF5219
:1003D000F84FAE014F5F5F4FDA0191919D93A017E7
:1003E000B107D9F7B9016F707727672B29F5998184
:1003F0006A8169836B816A836C816B839C83BA0198
:10040000FB019191BF01E92FF0E0E75CFD4FD49033
:100410007B01F1E0EF1AF108F701D0826A177B0740
:1004200079F7998198279983682F70E0660F771F75
:1004300087FF29C08BE18627B9016B52784F6B018A
:10044000FA016191AF017601F0E1EF1AF108F701CD
:1004500090819627F60191936F014A175B0781F708
:100460002C5F3F4F203B310509F0B0CF0F900F902C
:100470000F900F90DF91CF911F910F91FF90EF9010
:10048000DF90CF90089580E0D6CF6F927F928F92C9
:100490009F92AF92BF92CF92DF92EF92FF920F9313
:1004A0001F93CF93DF93CDB7DEB760970FB6F89465
:1004B000DEBF0FBECDBF45ED57E0DE0111968C01CA
:1004C000005F1F4F7D01FC012191CF01FA013191A5
:1004D000AF012327F70121937F010817190799F727
:1004E00005EE17E051E06D01F0E1CF0ED11C9D014A
:1004F000F90181919F01E82FF0E0E75CFD4F449105
:10050000C9010197FC014083C216D30689F78A818D
:100510009E819A839A859E839E859A878E878B81FA
:100520009B859B838B878F819F859F838F878889FE
:100530009C85988B98859C879C8198878C835A3062
:1005400009F44CC0FD0190818181B2804381E92E84
:10055000F12CEE0CFF1C0F2EFBE19F2EF02D97FFD0
:10056000912C9E24E82EF12CEE0CFF1C0F2EFBE1AB
:100570006F2EF02D87FF612C6E24882E8B24F82C93
:10058000F426F924F624F082A92EAB24EB2CF12CCE
:10059000EE0CFF1C712CB7FE04C00F2EFBE17F2E6A
:1005A000F02D7E24FA2CF426F624F724F182E92E8D
:1005B000E826E426A42EB12CAA0CBB1C80E047FD43
:1005C0008BE1A826E724EA24E282982599269A243A
:1005D000938234962E173F0709F0B5CF78014D016D
:1005E000F40181914F01F70191917F015401F1E0F4
:1005F000AF1AB1088927F50180832815390581F7DD
:100600005F5F005F1F4F5B3009F071CFFB01CB01D3
:1006100040962D9121938E179F07D9F760960FB6BC
:10062000F894DEBF0FBECDBFDF91CF911F910F9128
:10063000FF90EF90DF90CF90BF90AF909F908F9002
:100640007F906F9008952F923F924F925F926F929A
:100650007F928F929F92AF92BF92CF92DF92EF9252
:10066000FF920F93CF93DF93CDB7DEB7A2970FB66C
:10067000F894DEBF0FBECDBF6A01312C212CF12CC6
:10068000E12C2B013C01812C912C5401EC14FD0434
:1006900008F042C0C10101969AA389A3E5E6F7E0FC
:1006A000DE01119681918D9397E0EB36F907D1F732
:1006B000DE011796E8E3F0E09201A301B401C50161
:1006C0000E2F0E940F302D933897E83F2FEFF2073F
:1006D00099F73F86288ABE016F5E7F4FCE01019653
:1006E0000E944502F701EB58F84FDE015196C70111
:1006F00040963D912081232720832FEFE21AF20AB2
:10070000E816F90629F03196CE14DF0491F7C601F8
:1007100029A03AA07C01BACFA2960FB6F894DEBF0A
:100720000FBECDBFDF91CF910F91FF90EF90DF9083
:10073000CF90BF90AF909F908F907F906F905F9081
:100740004F903F902F900895EDE2F2E0E491909168
:100750007B008E2F880F880F80729F7D892B80935E
:100760007B00E770E064E0937C0080917A00806415
:1007700080937A0080917A0086FDFCCF809178008A
:10078000909179000895E1E0F2E02491E2EEF1E049
:100790003491E3ECF1E09491992309F430C02223E1
:1007A000E9F021502F30D0F4E22FF0E0E652FC4F78
:1007B0000C94F82F08040C04E90300040404EE036D
:1007C000EE03EE030F04150419041D042304EE03C5
:1007D0002704209180002F7720938000E92FF0E0FC
:1007E000EE0FFF1FEC55FE4FA591B4919FB7F89403
:1007F000EC91811132C030953E233C939FBF089508
:10080000209180002F7DE8CF20918000277FE4CFCA
:1008100024B52F7724BDE2CF24B52F7DFBCF2091C7
:1008200090002F7720939000D9CF209190002F7DBA
:10083000F9CF20919000277FF5CF2091C0002F772E
:100840002093C000CBCF2091C0002F7DF9CF209105
:10085000C200277F2093C200C1CF3E2BCECF83E0C2
:100860008093E9008091F200882319F08AE3809355
:10087000E8000895FC0180918306882311F13FB7B9
:10088000F89482E08093E9002091F200822F90E0BA
:100890001816190614F481E090E0882339F028989E
:1008A00044E6409382064091F1004083222339F0D0
:1008B0002091F200211103C02BE62093E8003FBFF6
:1008C00008958FEF9FEF08954091BA055091BB05B1
:1008D0002091B8053091B90542175307B4F49091AF
:1008E000E8009570E1F39091E80092FD19C08093C3
:1008F000F1008091BA059091BB0501968F739927FD
:10090000892B19F48EEF8093E8008091BA059091BD
:10091000BB0501969093BB058093BA0581E00895CD
:1009200080E00895EF92FF920F931F93CF93DF9390
:10093000F82E192FE62E042F81E0860F880F0E94D3
:10094000640483E00E946404CF2DD12FEC0EFD2EB1
:10095000F11CCE15DF05B9F007FF13C0FE0184912D
:100960000E946404182F80E00E9464048123219671
:100970008111EFCFDF91CF911F910F91FF90EF90F9
:1009800008958881EDCF81E0F5CFDF92EF92FF925D
:100990000F931F93CF93DF93D82E8A01EB017B0136
:1009A000E40EF51ECE15DF0559F0D7FE12C0FE018C
:1009B00084910E94640421968111F4CF0FEF1FEF00
:1009C000C801DF91CF911F910F91FF90EF90DF90C1
:1009D00008958881EECF2FB7F89487708093E9004F
:1009E0009091E800892F807295FF04C09091F200E9
:1009F00080E4891B2FBF0895615030F02091F100F1
:100A0000FC0120830196F8CF289884E68093820623
:100A10000895EF92FF920F931F93CF93DF938C0172
:100A20007B01D0E0C0E0F701EC0FFD1F649166236D
:100A300061F0D801ED91FC910190F081E02DC801A9
:100A40000995892B11F02196EECFCE01DF91CF9140
:100A50001F910F91FF90EF900895AF92BF92CF92A8
:100A6000DF92EF92FF920F931F93CF93DF936C016E
:100A70007B018B01040F151FEB015E01AE18BF084F
:100A8000C017D10759F06991D601ED91FC91019001
:100A9000F081E02DC6010995892B79F7C501DF9119
:100AA000CF911F910F91FF90EF90DF90CF90BF906B
:100AB000AF9008958091B00581110DC082E08093C0
:100AC000AC0584E08093AD051092AF051092AE05A1
:100AD00081E08093B0058CEA95E008950F931F9311
:100AE000CF93DF931F92CDB7DEB782E0898342E4D4
:100AF00050E061E271E080E80E94C5040E945A055E
:100B0000DC0112960D911C910115110589F0D80197
:100B1000ED91FC910280F381E02DBE016F5F7F4F6C
:100B2000C801099597FD04C0F80100851185ECCF37
:100B300089810F90DF91CF911F910F910895FC0152
:100B4000538D448D252F30E0842F90E0821B930B32
:100B5000541710F0CF96089501970895FC01918DD8
:100B6000828D981761F0A28DAE0FBF2FB11D5D96DB
:100B70008C91928D9F5F9F73928F90E008958FEF7D
:100B80009FEF0895FC01918D828D981731F0828D31
:100B9000E80FF11D858D90E008958FEF9FEF089588
:100BA000FC01918D228D892F90E0805C9F4F821BEC
:100BB00091098F739927089585E898E00E94D005E0
:100BC00021E0892B09F420E0822F089580E090E055
:100BD000892B29F00E94DC0581110C9400000895F6
:100BE000FC01A48DA80FB92FB11DA35ABF4F2C91A2
:100BF000848D90E001968F739927848FA689B78999
:100C00002C93A089B1898C9182748C93938D848D5F
:100C1000981306C00288F389E02D80818F7D808340
:100C20000895EF92FF920F931F93CF93DF93EC0100
:100C300081E0888F9B8D8C8D981319C0E889F98984
:100C4000808185FF14C09FB7F894EE89FF89608387
:100C5000E889F9898081827480839FBF81E090E078
:100C6000DF91CF911F910F91FF90EF900895F62E95
:100C70000B8D10E00F5F1F4F0F731127E02E8C8D2F
:100C80008E110CC00FB607FCFACFE889F989808174
:100C900085FFF5CFCE010E94F005F1CFEB8DEC0F73
:100CA000FD2FF11DE35AFF4FF0829FB7F8940B8F91
:100CB000EA89FB8980818062CFCFCF93DF93EC01FB
:100CC000888D8823B9F0AA89BB89E889F9898C9134
:100CD00085FD03C0808186FD0DC00FB607FCF7CFF0
:100CE0008C9185FFF2CF808185FFEDCFCE010E94F0
:100CF000F005E9CFDF91CF910895CF93DF931F9255
:100D0000CDB7DEB76983DC01ED91FC910280F38100
:100D1000E02D41E050E0BE016F5F7F4F09950F90DD
:100D2000DF91CF9108950C942F0483E00E94EB048F
:100D300090E00895CF93DF931F92CDB7DEB7FC010B
:100D40008485958597FD08C02FEF3FEF3587248771
:100D50000F90DF91CF910895CE0101960E943A0441
:100D6000019719F4898190E0F3CF8FEF9FEFF0CFD7
:100D70000F931F93CF93DF931F92CDB7DEB78C01F4
:100D8000FC018485958597FF0BC0CE0101960E94DA
:100D90003A04019771F4898190E0F801958784877E
:100DA000F801848595850F90DF91CF911F910F9168
:100DB00008958FEF9FEFF1CFFC018485958597FD16
:100DC0000BC09FB7F89482E08093E9008091F20015
:100DD0009FBF90E0019608959FB7F89482E08093BA
:100DE000E9008091F2009FBF90E008953FB7F8942A
:100DF0008091A8059091A905A091AA05B091AB0595
:100E000026B5A89B05C02F3F19F00196A11DB11D65
:100E10003FBFBA2FA92F982F8827BC01CD01620FA1
:100E2000711D811D911D42E0660F771F881F991F5C
:100E30004A95D1F708958F929F92AF92BF92CF9229
:100E4000DF92EF92FF926B017C010E94F6064B014C
:100E50005C01C114D104E104F104B9F00E94F6066A
:100E6000681979098A099B09683E734081059105D3
:100E700080F321E0C21AD108E108F10888EE880E5B
:100E800083E0981EA11CB11CE4CFFF90EF90DF908F
:100E9000CF90BF90AF909F908F9008957F928F9248
:100EA0009F92AF92BF92CF92DF92EF92FF920F93F9
:100EB0001F93CF93DF93C82E8B017A018091830615
:100EC000811110C08FEF9FEFDF91CF911F910F9194
:100ED000FF90EF90DF90CF90BF90AF909F908F905A
:100EE0007F9008958091BE0580FF05C08091E0004D
:100EF00082608093E000CE2DDF2DD12C8AEFB82EBA
:100F00008C2D8770982E8C2D8072882E8C2D80745D
:100F1000782E9AE3A92E209719F4DD2009F452C007
:100F20008C2D0E94EB0481110AC0BA94BB2051F2AF
:100F300061E070E080E090E00E941B07ECCF8C172E
:100F40001D0611F00CF08C2F9FB7F8949092E900D9
:100F50002091E80025FD02C09FBFDDCF282F30E0A3
:100F6000C21BD30B882029F08150A0F01092F10011
:100F7000FBCFF801C7FC0AC0815050F0419140936B
:100F8000F100FACF44914093F10031968150D0F7AF
:100F9000020F131FDD2021F0A092E800D12CDCCF3E
:100FA0008091E80085FD07C0A092E800DD24D3947D
:100FB000209791F2F3CF209779F6772069F2A092EB
:100FC000E800CACF5D9884E68093BD05C7017CCF59
:100FD000CF93DF93EC0180914801882331F083E0C7
:100FE0000E944E071816190634F081E090E09B83AA
:100FF0008A8380E090E0DF91CF9108952FB7F89435
:101000006091A4057091A5058091A6059091A70512
:101010002FBF08950F93CF93DF9300D000D0CDB7AB
:10102000DEB769834A832B830C8344E050E0BE0122
:101030006F5F7F4F80640E944E070F900F900F905C
:101040000F90DF91CF910F9108950F93E2E7F9E0B0
:101050006385682B638700E020E040E083810E9485
:101060000A080F9108950F93E2E7F9E080956385F0
:101070006823638700E020E040E083810E940A0843
:101080000F91089590ED980F9A3028F4082E000CD7
:10109000990BC09708959FEB980F963028F4082E6F
:1010A000000C990BC79708959FE9980F963030F47C
:1010B000082E000C990B8755910908958FEF9FEF2B
:1010C00008957F928F929F92AF92BF92CF92DF92BC
:1010D000EF92FF920F931F93CF93DF934A01590131
:1010E0006C017B0110E000E0F60180818823F9F0BB
:1010F00071807720E1F00815190559F10E94420826
:10110000EC01872D0E944208D7FD23C0F2E0CF0EEC
:10111000D11C97FD1EC094E0CC0FDD1F9A95E1F71E
:10112000C82BF701C1937F010F5F1F4FDDCFF50182
:101130001183008381E0DF91CF911F910F91FF9088
:10114000EF90DF90CF90BF90AF909F908F907F9067
:10115000089580E0F0CF8F929F92AF92BF92CF928E
:10116000DF92EF92FF926C010E94FE074B015C013F
:101170001092DF04F12CE12C0E94FE076819790916
:101180008A099B096C157D058E059F0560F080E03E
:1011900022C0E73C40F491E09E0F9093DF04F0E022
:1011A000E356F94F808382E299E00E94DC06892BA6
:1011B00019F382E299E00E949A068D30A1F3E09142
:1011C000DF048A3031F7AE2FB0E0A356B94F1C923E
:1011D00081E0EE23E1F2FF90EF90DF90CF90BF909F
:1011E000AF909F908F9008954F925F926F927F92F1
:1011F0008F929F92AF92BF92CF92DF92EF92FF9227
:101200000F931F93CF93DF9300D000D000D0CDB7C2
:10121000DEB72B013C0129833A834B835C830E8329
:101220008091080190910901A0910A01B0910B01F0
:1012300049015A01881A990AAA0ABB0A80910C012D
:1012400090910D01A0910E01B0910F0173016B01FE
:10125000C81AD90AEA0AFB0AC114D104E104F1044C
:10126000E1F581149104A104B104F1F58E81882384
:1012700049F0082F20E040E060917D0980917509D8
:101280000E940A0840920C0150920D0160920E01DA
:1012900070920F0189819A81AB81BC818093080192
:1012A00090930901A0930A01B0930B0126960FB603
:1012B000F894DEBF0FBECDBFDF91CF911F910F918C
:1012C000FF90EF90DF90CF90BF90AF909F908F9066
:1012D0007F906F905F904F90089521E8C2162FEF96
:1012E000D206E206F206B4F1CD8280E8C816D10437
:1012F000E104F10414F09FE79D8311E8B1E88B1637
:10130000BFEF9B06AB06BB0644F0182D20E8821603
:101310009104A104B1040CF01FE700E0212F4D81DE
:1013200060917D09809175090E940A082D81822FA4
:10133000220F990BAA0BBB0BC81AD90AEA0AFB0A9F
:10134000812F110F990BAA0BBB0B881A990AAA0AB5
:10135000BB0A82CFA1E8AD83D0CF0F931092A00536
:10136000E2E7F9E0138600E020E040E060E08381FE
:101370000E940A0820911001309111014091120140
:101380005091130160911401709115018091160123
:10139000909117010E94F4080F9108950F932091E6
:1013A000100130911101409112015091130160918F
:1013B000140170911501809116019091170100E0C0
:1013C0000E94F4080F9108952F923F924F925F92DE
:1013D0006F927F928F929F92AF92BF92CF92DF9245
:1013E000EF92FF920F931F93CF93DF93CDB7DEB7AA
:1013F0006E970FB6F894DEBF0FBECDBF2B013C0138
:1014000049015A0118011E2D2114310461F500E033
:101410000E94F40840921401509215016092160146
:10142000709217018092100190921101A092120106
:10143000B09213016E960FB6F894DEBF0FBECDBF0B
:10144000DF91CF911F910F91FF90EF90DF90CF90A0
:10145000BF90AF909F908F907F906F905F904F90D4
:101460003F902F90089520911401309115014091E3
:101470001601509117012D833E834F835887809129
:10148000100190911101A0911201B091130189876F
:101490009A87AB87BC87D301CB01821B930BA40B2C
:1014A000B50B8D879E87AF87B88BA5019401898581
:1014B0009A85AB85BC85281B390B4A0B5B0B298BA6
:1014C0003A8B4B8B5C8BA1E0B0E0BE8FAD8F61019E
:1014D000F12CE12C212F30E050E040E0298F3A8FB1
:1014E0004B8F5C8FAD8DBE8DCD01B0E0A0E08983C8
:1014F0009A83AB83BC839C01AD0169897A898B890E
:101500009C890E941F2CA70196010E94512C89855D
:101510009A85AB85BC85820F931FA41FB51F8D8B49
:101520009E8BAF8BB88F29813A814B815C816D8511
:101530007E858F8598890E941F2CA70196010E94A5
:10154000512C6D817E818F819885620F731F841F5E
:10155000951F00E02D893E894F89588D0E94F4081F
:10156000AD8DBE8DA215B30540F4112331F0698D08
:101570007A8D8B8D9C8D0E941B072D8D3E8D2F5F4C
:101580003F4F3E8F2D8F2216330608F0ABCF42CF50
:10159000DC01FB0112962C9112978481958128170A
:1015A0001906C1F48081813271F481818B3029F474
:1015B00082811C968C9381E008958A3059F483814E
:1015C0001D968C93F8CF813A29F49181915081E056
:1015D000933008F080E00895CF93DF93CDB7DEB766
:1015E00029970FB6F894DEBF0FBECDBFFC01428134
:1015F000FB01248135814217130659F520812138DA
:1016000041F523812132D1F489E0E4E5F1E0DE0106
:10161000119601900D928A95E1F749E050E0BE01E4
:101620006F5F7F4F80E00E94C50429960FB6F89443
:10163000DEBF0FBECDBFDF91CF910895223249F4B6
:1016400021E0FC0124874EE250E066ED70E080E886
:10165000EACF90E080E0E9CFCF93DF93CDB7DEB75C
:1016600069970FB6F894DEBF0FBECDBFFC01DB015A
:101670009C919F5F9C939E012D5F3F4F81E1D9011B
:101680001D928A95E9F729E0298384E08A8391E015
:101690009D8383E08E839F8332E038872A8721E20F
:1016A0002B879C879D879F8722E2288B2EE2298BA0
:1016B00027E02B8B25E02C8B8E8B20E430E0388FBD
:1016C0002F8B998F82818B83838180688D8B49E1F9
:1016D00050E0BE016F5F7F4F80E00E94C5046996B5
:1016E0000FB6F894DEBF0FBECDBFDF91CF91089546
:1016F000FC0182818F5BFB01808381E00895CF93A1
:10170000DF93EC0165EA71E00E945730892B49F1C3
:101710006AEA71E0CE010E945730892B11F16CEA20
:1017200071E0CE010E945730892BB9F062EB71E075
:10173000CE010E945730892B81F064EB71E0CE011D
:101740000E945730892B39F06AED71E0CE010E947A
:101750005730892B31F484E001C082E0DF91CF91D2
:10176000089581E0FBCFCF92DF92EF92FF926B0161
:101770007C01C114D104E104F10441F00E949329D9
:10178000A70196010E94512C6B017C01C701B60193
:10179000FF90EF90DF90CF900895CF92DF92EF927D
:1017A000FF926B017C01C216D306E406F506B4F481
:1017B000DA01C9010196A11DB11DC816D906EA06B4
:1017C000FB0664F4BC01CD016C197D098E099F09EB
:1017D0000E94B30BC60ED71EE81EF91EC701B60144
:1017E000FF90EF90DF90CF900895FB0101900020D3
:1017F000E9F73197AF01461B570BDC01ED91FC91E6
:101800000280F381E02D09940F931F93CF93DF9310
:10181000EC010E94F50B8C016BEB71E0CE010E9494
:10182000F50B800F911FDF91CF911F910F910895BC
:10183000FF920F931F93CF93DF93CDB7DEB7A3979C
:101840000FB6F894DEBF0FBECDBF46E050E06EEBA2
:1018500071E08DE996E00E946030892B09F090C01C
:101860001BA21AA29E012E5D3F4F40E150E065E6AB
:1018700077E083EA96E00E946108182F882309F434
:1018800073C08AA19BA1409709F06EC00E94AD0968
:1018900085E691E00E94C8016DE876E085E697E074
:1018A0000E9445028DE896E00E94C8012DE836E0CE
:1018B000DE0111964DE956E0FA2E0B2FF9016191E8
:1018C0009F01862F90E074E0959587957A95E1F7D2
:1018D0008B539E4FFC0180818C93E62FEF70F0E0DC
:1018E000EB53FE4F808111968C93119712964217FD
:1018F000530721F719A26FE072E082E299E00E949B
:10190000090566ED71E082E299E00E94F50B6CE753
:1019100082E299E00E947D066F2D702F82E299E0AD
:101920000E94040C81E080938C061092880610922D
:10193000890610928A0610928B06109284061092E5
:10194000850610928606109287060E94FE07812F58
:10195000A3960FB6F894DEBF0FBECDBFDF91CF9137
:101960001F910F91FF90089563E272E082E299E087
:101970000E9409056BEB71E082E299E00E94F50B91
:1019800010E0E5CFCF93C82F64E171E085E898E0DF
:101990000E94090561E171E0C23031F064E071E05C
:1019A000C13011F469E071E085E898E00E94090512
:1019B0006BEB71E085E898E00E94F50B85E898E014
:1019C000CF910C945D06CF92DF92EF92FF920F932E
:1019D0001F93CF9380918306C0E0882329F08091E4
:1019E000BE05C2E080FDC1E00E94FE076B017C01E4
:1019F00080917C0481111BC0C0937B04C0937A0446
:101A0000C0927604D0927704E0927804F092790440
:101A100081E080937C048C2F0E94C20CC0927204DF
:101A2000D0927304E0927404F09275040EC0809119
:101A30007B048C1791F0C0937B04C0927604D09203
:101A40007704E0927804F0927904CF911F910F917E
:101A5000FF90EF90DF90CF90089580917A048C17DB
:101A6000C1F04091760450917704609178047091B0
:101A7000790497018601041B150B260B370BB9015E
:101A8000A801483751056105710518F0C0937A0423
:101A9000C2CF4091720450917304609174047091AC
:101AA000750497018601041B150B260B370BB90132
:101AB000A801403D57406105710538F2ADCFCF9286
:101AC000DF92EF92FF920F931F93CF93DF937C01EE
:101AD00080918006909181060097B1F0B7010E9435
:101AE000040C8091800690918106DC01ED91FC91BF
:101AF0000680F781E02DDF91CF911F910F91FF902C
:101B0000EF90DF90CF90099480918C0681110DC0E9
:101B1000B70182E299E0DF91CF911F910F91FF9081
:101B2000EF90DF90CF900C94040CF701019000200F
:101B3000E9F731978F010E191F090136110510F0D1
:101B400000E610E0E8012F96C07FAE0170E060E093
:101B500085E797E00E944530A801B70185E797E047
:101B60000E942A30C0908806D0908906E0908A06AC
:101B7000F0908B06BFEFCB1ADB0AEB0AFB0AC09290
:101B80008806D0928906E0928A06F0928B06AE0112
:101B9000C701B6010E942303FF92EF92DF92CF921A
:101BA0008CED91E09F938F931F9288EC8F938DE93A
:101BB00096E09F938F930E946E309C012356394F7D
:101BC000EDB7FEB73A960FB6F894FEBF0FBEEDBF65
:101BD00045E757E0BA01655777406C177D07E8F491
:101BE000853C9105D4F4DA01ED91AD01AE2FB0E062
:101BF00064E0B595A7956A95E1F7AB53BE4F6C913C
:101C0000D9016C930296EF70F0E0EB53FE4F6081C8
:101C100011966C932E5F3F4FDDCF8356994FFC0199
:101C200010826DE976E082E299E00E94040CEC01FA
:101C30000E942F04CD2BB1F462E070E080E090E0D0
:101C40000E941B076DE976E082E299E00E94040C95
:101C5000DF91CF911F910F91FF90EF90DF90CF9088
:101C60000C942F04DF91CF911F910F91FF90EF9073
:101C7000DF90CF9008950F931F93CF93DF93CDB74D
:101C8000DEB7C054D1090FB6F894DEBF0FBECDBF8A
:101C90009F938F9383EE91E09F938F931F9280E4A5
:101CA0008F938E010F5F1F4F1F930F930E946E3013
:101CB000C8010E945F0D0FB6F894DEBF0FBECDBF06
:101CC000C05CDF4F0FB6F894DEBF0FBECDBFDF9113
:101CD000CF911F910F9108958F929F92AF92BF92D3
:101CE000CF92DF92FF920F931F93CF93DF9300D099
:101CF000CDB7DEB7F0908C06FF2009F471C02091BB
:101D00009D06253471F420919E062C3751F46C0108
:101D10006CE770E08FE996E00E944C308C01892BD3
:101D200011F4F12C5DC04AE050E070E060E08FE912
:101D300096E00E94022B4B015C01809184069091F9
:101D40008506A0918606B091870688159905AA0593
:101D5000BB0528F08AEE91E00E943B0EE2CF1A828A
:101D600019829E012F5F3F4F40E650E065E777E024
:101D7000C80101960E946108F82E882391F24981DA
:101D80005A814115510569F2CA018F709927892B33
:101D900041F68092840690928506A0928606B092C3
:101DA0008706C501B4010E942303E981FA810E2F41
:101DB000FF27EB58F84F002341F08291811102C0B8
:101DC0000150F9CF003608F00FE510E0A80165E7F3
:101DD00077E0C6010E942A300C0D1D1DF80110820B
:101DE0008F2D0F900F90DF91CF911F910F91FF904A
:101DF000DF90CF90BF90AF909F908F90089585E82F
:101E000098E00E94D005892B09F470C085E898E01D
:101E10000E94AE058D3099F3E0917E048A3009F07E
:101E200059C0EE2361F3F0E0E05EF94F10821092AA
:101E30007E0480912006833231F080917D048111EF
:101E400033C081E0089580912106882369F1809153
:101E50002206882349F1809123068C3729F540E139
:101E600050E070E060E081E296E00E94EB29E4E25D
:101E7000F6E080E09191992311F0890FFBCF681370
:101E800013C081E080937D0444E256E0FA010190A2
:101E90000020E9F7AF014452564064E276E080E268
:101EA00096E00E943330CDCF85E898E0909381068C
:101EB0008093800680912006833249F481EF91E07F
:101EC0000E943B0E109281061092800698CF87EFF9
:101ED00091E0F6CFEF3508F092CF91E09E0F90930E
:101EE0007E04F0E0E05EF94F808389CF80E00895C2
:101EF0008F929F92AF92BF92CF92DF92EF92FF921A
:101F00004B015C010E94FE076B017C010E94FE07F1
:101F10006C197D098E099F09681579058A059B054D
:101F200048F50E94E30C0E94FF0E8823E1F06FEF5A
:101F300071E080E296E00E945730892B81F40E9484
:101F4000AD0984E092E00E945F0D80E0FF90EF9089
:101F5000DF90CF90BF90AF909F908F90089586E1D3
:101F600092E00E943B0E62E070E080E090E00E9410
:101F70001B07CCCF81E0EACF2F923F924F925F9226
:101F80006F927F928F929F92AF92BF92CF92DF9289
:101F9000EF92FF920F931F93CF93DF93CDB7DEB7EE
:101FA000C054D1090FB6F894DEBF0FBECDBF6BA3EE
:101FB0007CA38DA39EA32FA338A749A75AA72701C7
:101FC0003801AB82BC82CD82DE82C801B7012BA171
:101FD0003CA14DA15EA1621B730B840B950B0E946B
:101FE000E52D6B8B7C8B8D8B9E8BC601B5012FA154
:101FF00038A549A55AA5621B730B840B950B0E944B
:10200000E52D6F8B788F898F9A8F2B893C894D892D
:102010005E89CA01B9010E949A2E6B017C012F8949
:10202000388D498D5A8DCA01B9010E949A2E9B01A3
:10203000AC01C701B6010E94CA2C0E94152F6B018A
:102040007C0120E030E040E85FE30E94362D87FF0E
:102050001FC000E02B813C814D815E81C301B20134
:102060000E94F408409214015092150160921601EA
:10207000709217018B819C81AD81BE81809310018C
:1020800090931101A0931201B093130181E035C325
:10209000A70196016F89788D898D9A8D90580E943D
:1020A0003B2D6DA77EA78FA798ABA70196016B89E3
:1020B0007C898D899E890E943B2D69AB7AAB8BAB65
:1020C0009CAB62E070E080E090E00E94B30B672B75
:1020D000682B692B09F0ABC220E030E040E85FEBF1
:1020E0002F87388B498B5A8B24E330E847E35BE337
:1020F0006D966CAD7DAD8EAD9FAD6D970E949A2EA5
:1021000026EA3BE944E45CE30E94CA2CA70196015D
:102110000E949A2E6F8F78A389A39AA36BA17CA1AA
:102120008DA19EA1640D751D861D971D0E94E52D34
:1021300020E030E040E05FE30E949A2E4B015C011A
:102140002F8D38A149A15AA16DA57EA58FA598A96B
:102150000E949A2E9B01AC01C501B4010E94CA2CB9
:102160004B015C0120E030E040E050E40E94362D5D
:1021700087FD55C060910601709107016350710998
:1021800090E080E00E94E32D9B01AC01C501B40109
:102190000E94952E18160CF442C06B817C818D81B3
:1021A0009E812FA138A549A55AA5620F731F841FD0
:1021B000951F0E94E52D20E030E040E05FE30E94A3
:1021C0009A2E4B015C012F8D38A149A15AA169A912
:1021D0007AA98BA99CA90E949A2E9B01AC01C501EA
:1021E000B4010E94CA2C4B015C0120E030E040E0C9
:1021F00050E40E94362D87FD12C060910401709159
:1022000005016350710990E080E00E94E32D9B017D
:10221000AC01C501B4010E94952E18164CF48F85AF
:102220009889A989BA89B0588F87988BA98BBA8B5E
:1022300020E030E040E450E4C701B6010E943B2DAD
:102240000E94AD2D6C307105810591050CF4F8C12B
:10225000DC01CB0181369105A105B10524F080E6B2
:1022600090E0A0E0B0E09A8389836E968FAD6E9780
:102270008111EBC11CA61BA620E030E041E153E434
:102280006D966CAD7DAD8EAD9FAD6D970E94952E18
:1022900018160CF010C220E030E040E450E42DAB02
:1022A0003EAB4FAB58AF69962CAD3DAD4EAD5FAD7B
:1022B00069972B873C874D875E8722242394312C96
:1022C0001F82188619861A86A981BA81CD01B0E0CD
:1022D000A0E089AF9AAFABAFBCAFB10190E080E0B6
:1022E0000E94E32D6B017C0169AD7AAD8BAD9CAD95
:1022F0000E94E32D9B01AC01C701B6010E943B2D5A
:102300006B017C01AC019B010E94CA2C9B01AC01BA
:1023100060E070E080E490E40E94C92C4B015C0115
:10232000A7019601C701B6010E949A2E9B01AC013C
:10233000C501B4010E949A2E6B8F7C8F8D8F9E8F6A
:102340002BED3FE049E450E4C701B6010E949A2E0C
:102350006B017C010E94072F4B015C01A7019601D4
:102360006DA97EA98FA998AD0E949A2E0E94072F71
:102370006B017C012F8D38A149A15AA1C501B4017F
:102380000E949A2E2F85388949895A890E949A2E4F
:102390004B015C012DEC3CEC4CE45FE3C701B60162
:1023A0000E949A2E2DEC3CEC4CE45EE30E94CA2C79
:1023B0009B01AC01C501B4010E949A2E4B015C0146
:1023C0006BA17CA18DA19EA10E94E52D6B017C01DA
:1023D0002B8D3C8D4D8D5E8D6B897C898D899E8981
:1023E0000E949A2E9B01AC01C701B6010E94CA2C23
:1023F0006B017C01A50194016DA57EA58FA598A90F
:102400000E949A2E9B01AC01C701B6010E94CA2C02
:102410006B017C0120E030E0A9010E94952E20E0B4
:1024200030E040E05FE387FD4FC1C701B6010E9485
:10243000CA2C0E94AD2D6B017C016FA178A589A5E6
:102440009AA50E94E52D21966CAF7DAF8EAF9FAF10
:1024500021972B8D3C8D4D8D5E8D6F89788D898D6B
:102460009A8D0E949A2E9B01AC0121966CAD7DAD98
:102470008EAD9FAD21970E94CA2C6B8F7C8F8D8F64
:102480009E8FA501940169A97AA98BA99CA90E9494
:102490009A2E9B01AC016B8D7C8D8D8D9E8D0E9443
:1024A000CA2C4B015C0120E030E0A9010E94952E6E
:1024B00020E030E040E05FE387FD0BC1C501B401DF
:1024C0000E94CA2C0E94AD2D46015701B7FE03C0E1
:1024D000812C912C54012091060130910701690152
:1024E000F12CE12C8C149D04AE04BF042CF021507F
:1024F00031094901B12CA12C6B017C01F7FE03C00D
:10250000C12CD12C76018091040190910501AC0180
:1025100070E060E0C416D506E606F70624F00197E1
:102520006C01F12CE12C00E0A7019601C501B4017A
:102530000E94F4088092140190921501A092160155
:10254000B0921701C0921001D0921101E0921201D5
:10255000F09213016B857C858D859E8529AD3AAD02
:102560004BAD5CAD0E942F2C69017A012F8138851B
:1025700049855A852C153D054E055F0508F4AEC00A
:102580004BA55CA542155305B9F42091300130915B
:102590003101032E000C440B550B60912E017091FC
:1025A0002F01072E000C880B990B0E94CD0B0E9467
:1025B000780F882309F4A0C03FEF231A330A8B85D4
:1025C0009C85AD85BE8569962CAD3DAD4EAD5FADAC
:1025D0006997820F931FA41FB51F8B879C87AD87B8
:1025E000BE87CF82D886E986FA8649815A8142150C
:1025F000530508F072CE409214015092150160927A
:102600001601709217018B819C81AD81BE818093F0
:10261000100190931101A0931201B093130100E0F7
:102620009C01AD01C301B2010E94F4082FCD80E0EE
:1026300090E0A0E8BFE38F87988BA98BBA8B54CD2D
:10264000ACE0B0E0BA83A98310CE80912C019091C8
:102650002D01181619060CF00DCE64E670E080E02E
:1026600090E00E94B30B20912C0130912D01690163
:10267000330FEE08FF086C157D058E059F050CF0E5
:10268000F9CD23E030E089819A81880F991FB90143
:102690000E94E42F6B01F12CE12C89819A81B90110
:1026A0000E94E42F90E080E0A70196010E94CD0BEC
:1026B0007CA76BA7E1CD80E090E0A0E0B0E48DAB1B
:1026C0009EABAFABB8AFEFCDC701B6010E94C92C2E
:1026D000B0CEC501B4010E94C92CF4CEC701B60129
:1026E0002F81388549855A85621B730B840B950BA6
:1026F0000E94780F811144CF80E0C05CDF4F0FB69D
:10270000F894DEBF0FBECDBFDF91CF911F910F9127
:10271000FF90EF90DF90CF90BF90AF909F908F9001
:102720007F906F905F904F903F902F9008952F92E1
:102730003F924F925F926F927F928F929F92AF9251
:10274000BF92CF92DF92EF92FF920F931F93CF939E
:10275000DF93CDB7DEB72A970FB6F894DEBF0FBE72
:10276000CDBF8C017E836D8369017A010E94FE07D3
:1027700069837A838B839C83812C912C5401212C37
:1027800082E0382E4D815E819A0150E040E02D8339
:102790003E834F835887C114D104E104F10411F53D
:1027A0000E94FE072B013C011A8619860E94FE0733
:1027B00064197509860997096A30710581059105C3
:1027C00010F50E94A4039C01325037FF03C0910111
:1027D000281B390B49855A854217530738F73A8722
:1027E0002987E4CF0E94FE0729813A814B815C81D1
:1027F000621B730B840B950B6C157D058E059F0575
:1028000078F283E035C089859A858017910780F03A
:102810009AE0890E911CA11CB11C2D813E814F8133
:10282000588582169306A406B50628F081E020C0DC
:10283000812C912C540182E299E00E94DC06892BC4
:10284000A1F182E390E00E94AB08882371F18FE749
:1028500094E00E946C0E882321F144E050E06FEF79
:1028600071E08FE794E00E946030892BD1F482E020
:102870002A960FB6F894DEBF0FBECDBFDF91CF9181
:102880001F910F91FF90EF90DF90CF90BF90AF908E
:102890009F908F907F906F905F904F903F902F9080
:1028A000089586E192E00E943B0E0E94FF0E88236D
:1028B00009F471CF44E050E06FEF71E080E296E000
:1028C0000E946030892B99F245E858E050938106C8
:1028D0004093800686E192E00E943B0E10928106B2
:1028E0001092800658CF0F931F93CF93DF93CDB7ED
:1028F000DEB7C054D1090FB6F894DEBF0FBECDBF0E
:102900009F938F938BE192E09F938F931F9280E42C
:102910008F938E010F5F1F4F1F930F930E946E3096
:10292000C8010E945F0D0FB6F894DEBF0FBECDBF89
:10293000C05CDF4F0FB6F894DEBF0FBECDBFDF9196
:10294000CF911F910F9108952F923F924F925F92D6
:102950006F927F928F929F92AF92BF92CF92DF92AF
:10296000EF92FF920F931F93CF93DF93CDB7DEB714
:10297000A8970FB6F894DEBF0FBECDBF69877A87E0
:102980008B879C872D873E874F87588B20914001EE
:10299000298321111EC081E292E00E943B0E8981B1
:1029A000A8960FB6F894DEBF0FBECDBFDF91CF91D2
:1029B0001F910F91FF90EF90DF90CF90BF90AF905D
:1029C0009F908F907F906F905F904F903F902F904F
:1029D00008958091060190910701B0E0A0E029855B
:1029E0003A854B855C85281739074A075B0738F518
:1029F0008091040190910501B0E0A0E02D853E8515
:102A00004F855889281739074A075B07C0F420917A
:102A1000260130912701032E000C440B550B6091C9
:102A2000240170912501072E000C880B990B0E9440
:102A3000CD0B0E94780F811107C01982B0CF8EE2B2
:102A400092E00E943B0EF9CF809114019091150104
:102A5000A0911601B0911701898B9A8BAB8BBC8B1F
:102A600020911001309111014091120150911301F8
:102A70002D8B3E8B4F8B588F69857A858B859C85F6
:102A800029893A894B895C89621B730B840B950BEE
:102A90000E94E52D6B017C016D857E858F8598896F
:102AA0002D893E894F89588D621B730B840B950BC2
:102AB0000E94E52D6D837E838F839887A701960101
:102AC000C701B6010E949A2E4B015C012D813E8107
:102AD0004F815885CA01B9010E949A2E9B01AC0111
:102AE000C501B4010E94CA2C0E94152F162F072F72
:102AF000382E292E20911E0130911F011216130627
:102B00000CF08BC0032E000C440B550B60911C0184
:102B100070911D01072E000C880B990B0E94CD0BA4
:102B2000698F7A8F8B8F9C8F898D9A8DAB8DBC8DA1
:102B300089839A83AB83BC8381339547A105B10513
:102B400044F080E395E7A0E0B0E089839A83AB830B
:102B5000BC8329813A814B815C81121613061406CD
:102B6000150644F081E090E0A0E0B0E089839A830C
:102B7000AB83BC832091220130912301032E000CF2
:102B8000440B550B6091200170912101072E000C20
:102B9000880B990B0E94CD0B0E94E52D6F8F78A3B7
:102BA0008D8F9E8F20E030E040EA52E4612F702F3D
:102BB000832D922D0E94952E87FD5CC080913A0155
:102BC00090913B01181619060CF054C064E670E0B1
:102BD00080E090E00E94B30B20913A0130913B01DC
:102BE0004901330FAA08BB08681579058A059B05BA
:102BF0000CF040C020E030E040E85FE3612F702F30
:102C0000832D922D0E94362D87FF57C0A12CB12C09
:102C100030E8832E4FE3942E54C020911A01309156
:102C20001B01032E000C440B550B60911801709191
:102C30001901072E000C880B990B0E94CD0B2B015C
:102C40003C0120E030E04AE754E4612F702F832DEF
:102C5000922D0E949A2E4B015C01C301B2010E9489
:102C6000E52D9B01AC01C501B4010E943B2D0E94E2
:102C7000AD2D56CF81E08F939E8D9F93AD8DAF93F9
:102C8000B8A1BF932F8D2F933C813F934B814F93DE
:102C90005A815F9389818F93AD84BE84CF84D88815
:102CA000E984FA840B851C852D893E894F89588DCE
:102CB00069897A898B899C897CC1A12EB02E832C4D
:102CC000922C9501A401C701B6010E943B2D2B0156
:102CD0003C019501A4016D817E818F8198850E94C0
:102CE0003B2D6B017C0169E873E180E090E00E947C
:102CF000B30B0E94E52D20E030E543EC57E40E9441
:102D00003B2D2FE832EC45EF5CE30E94CA2C212FCB
:102D1000302F432D522D0E949A2E0E94AD2D6230ED
:102D20007105810591050CF49BC169E873E180E0B0
:102D300090E00E94B30B0E94E52D20E030E543ECCB
:102D400057E40E943B2D2FE832EC45EF5CE30E94F4
:102D5000CA2C212F302F432D522D0E949A2E0E94D3
:102D6000AD2D65317105810591050CF07EC169E8D5
:102D700073E180E090E00E94B30B0E94E52D20E01B
:102D800030E543EC57E40E943B2D2FE832EC45EF51
:102D90005CE30E94CA2C212F302F432D522D0E941C
:102DA0009A2E0E94AD2D0E94E52D4B015C01AC01D5
:102DB0009B01C301B2010E949A2E6D837E838F8393
:102DC000988767E070E080E090E00E94B30B63506A
:102DD0007109810991090E94E52DA70196010E94C0
:102DE0009A2E9B01AC016D817E818F8198850E9416
:102DF000C92C0E94AD2D29853A854B855C85260F0F
:102E0000371F481F591F2D833E834F83588767E024
:102E100070E080E090E00E94B30B6DA37EA38FA3CF
:102E200098A780910601909107019C0150E040E035
:102E30008D819E81AF81B88582179307A407B5075E
:102E400008F04EC16DA17EA18FA198A563507109B4
:102E5000810991090E94E52DA30192010E949A2EF9
:102E60002B013C01A5019401C701B6010E949A2ED5
:102E70009B01AC01C301B2010E94CA2C0E94AD2D7E
:102E80004D845E846F847888460E571E681E791EB6
:102E90008091040190910501B0E0A0E04816590628
:102EA0006A067B0608F01CC181E08F933E8D3F933C
:102EB0004D8D4F9358A15F938F8D8F9369817A8148
:102EC0008B819C8122E0660F771F881F991F2A95AE
:102ED000D1F725E030E040E050E00E94512C5F93B4
:102EE0004F933F932F9363015201ED80FE800F813A
:102EF00018852D893E894F89588D69897A898B89F2
:102F00009C890E94BC0F0FB6F894DEBF0FBECDBFE8
:102F1000882309F492CD69E770E080E090E00E9498
:102F2000B30B645C7F4F8F4F9F4F0E94780F8823B5
:102F300009F483CD26E636E646EE5EE3BF8DA8A112
:102F4000FD8DEE8D6B2F7A2F8F2F9E2F0E949A2E44
:102F5000698B7D8B182F092F298D3A8D4B8D5C8DB8
:102F600025303105410551050CF484C069817A8111
:102F70008B819C8125E030E040E050E00E94512CA4
:102F80001F920F931F938D898F9399899F935F93BE
:102F90004F933F932F93AD84BE84CF84D888E98428
:102FA000FA840B851C85A30192016D817E818F813E
:102FB00098850E94BC0F0FB6F894DEBF0FBECDBF40
:102FC000882309F43ACD20912A0130912B01032E58
:102FD000000C440B550B6091280170912901072EBC
:102FE000000C880B990B0E94CD0B0E94780F8983EF
:102FF000882309F422CD80913C0190913D010196F6
:1030000090933D0180933C0180913E0190913F015E
:10301000892BB1F42091340130913501032E000C3D
:10302000440B550B6091320170913301072E000C57
:10303000880B990B0E94CD0B70933F0160933E016A
:1030400020913C0130913D0180913E0190913F01E2
:1030500028173907A0F480E192E00E9473149FCCF6
:1030600062E070E080E090E09ECE64E170E080E09D
:1030700090E099CE21E030E040E050E081CF109226
:103080003D0110923C012091340130913501032E15
:10309000000C440B550B6091320170913301072EE7
:1030A000000C880B990B0E94CD0B70933F0160932D
:1030B0003E012091380130913901032E000C440B60
:1030C000550B6091360170913701072E000C880B6B
:1030D000990B0E94CD0B0E94780F8111BCCFADCC13
:1030E00081E08F93BE8DBF932D8D2F9338A13F9399
:1030F0004F8D4F935C815F938B818F939A819F93C8
:10310000A981AF93C9CD2F923F924F925F926F9258
:103110007F928F929F92AF92BF92CF92DF92EF9267
:10312000FF920F931F93CF93DF93CDB7DEB7CC58A9
:10313000D1090FB6F894DEBF0FBECDBF7C016CE79E
:1031400070E00E944C300DEB11E0009729F08C01EB
:103150000F5F1F4FDC011C926FEF71E0C7010E94EF
:103160005730892B29F40E94AD098FEF91E042C0BE
:103170006AE472E0C7010E945730892B91F58AE416
:1031800092E00E9473140E94AD0910928C06109276
:1031900088061092890610928A0610928B06109269
:1031A0008406109285061092860610928706C457F0
:1031B000DF4F0FB6F894DEBF0FBECDBFDF91CF91CA
:1031C0001F910F91FF90EF90DF90CF90BF90AF9045
:1031D0009F908F907F906F905F904F903F902F9037
:1031E00008956EE472E0C7010E945730892B29F4DC
:1031F0008EE492E00E947314DACF6AEA73E0C701AA
:103200000E945730892B79F5809180069091810634
:103210008558984029F58BE392E09F938F93809196
:10322000A2058F938091A1058F9386ED91E09F93E6
:103230008F9383E592E09F938F931F9280E68F9305
:103240008E010F5F1F4F1F930F930E946E30C801B6
:103250000E945F0D0FB6F894DEBF0FBECDBFA7CFA3
:103260008DEB91E0DACF64E872E0C7010E9457303D
:10327000892BB9F57E01F1E6EF0EF11CD7011D9205
:103280001C921A821982CE0101969F938F93FF920E
:10329000EF9280EB92E09F938F931F930F930E9486
:1032A0009E300FB6F894DEBF0FBECDBF029709F077
:1032B000C8C4D7012D913C91121613060CF0C1C45D
:1032C00089819A81181619060CF0BBC43093070146
:1032D00020930601909305018093040184E892E015
:1032E00089CF6BE872E0C7010E945730892B09F043
:1032F000CAC26E01B5E6CB0ED11CF6011182108256
:103300005E01F9E6AF0EB11CD5011D921C9284E05E
:10331000EDE5F1E09E012F5F3F4F4901D90101909A
:103320000D928A95E1F7FE01359684E0DF011D924A
:103330008A95E9F77E01B1E6EB0EF11C81E390E09E
:10334000F7019183808313821282FF92EF923F9361
:103350002F93BF92AF92DF92CF9281E992E09F9339
:103360008F931F930F930E949E300FB6F894DEBF89
:103370000FBECDBF03970CF464C462EA72E0C401CF
:103380000E945730D5014D915C918A01052E000CA9
:10339000220B330BED960CAF1DAF2EAF3FAFED9769
:1033A000F601A081B1814D010B2E000CAA08BB08CB
:1033B000892B09F04EC09D010E94FE2F6B017C01FC
:1033C0009A01DA010E94FE2F6C0D7D1D8E1D9F1D3E
:1033D0000E94E52D0E94152F0E94B42D8B019C01A7
:1033E0000F5F1F4F2F4F3F4FD901C801B695A795CB
:1033F00097958795C358DF4F88839983AA83BB83AA
:10340000CD57D040409010015090110160901201B2
:1034100070901301ED962CAD3DAD4EAD5FADED97C7
:10342000240D351D461D571D609114017091150125
:103430008091160190911701680D791D8A1D9B1DC1
:10344000EE24E394EF960EAD1FADEF970E94E409D2
:1034500047C0D7018C91823309F0B2C0809114012A
:1034600090911501A0911601B09117019501840169
:10347000081B190B2A0B3B0BC901B8010091100165
:10348000109111012091120130911301ED964CAC75
:103490005DAC6EAC7FACED97401A510A620A730ABC
:1034A0009B01AC010E941F2C6B017C01A3019201C6
:1034B000C301B2010E941F2C6C0D7D1D8E1D9F1D2E
:1034C00061311AE7710717E08107910564F0809177
:1034D000A1059091A20501969093A2058093A10564
:1034E0008BE892E087CE0E94E52D0E94152F0E9466
:1034F000B42D2B013C0144E1E42EF12C2DE34216C6
:1035000051046104710490F0660F771F881F991FA2
:1035100025E030E040E050E00E942F2C790131EAB4
:10352000E316F10418F050EAE52EF12CC301B201C4
:103530006E5F7F4F8F4F9F4F23E030E040E050E0C1
:103540000E942F2C870116950795201708F4022F4B
:103550000D3318F5011122C0ED962CAD3DAD4EADE9
:103560005FADED97C501B4010E94F408809214018B
:1035700090921501A0921601B0921701ED968CADB4
:103580009DADAEADBFADED9780931001909311014D
:10359000A0931201B0931301A3CF0CE310E0C70175
:1035A000B8010E94E42F623008F462E0E62EED9646
:1035B0002CAD3DAD4EAD5FADED97C501B40146CF2D
:1035C000813311F100E0ED962CAD3DAD4EAD5FAD18
:1035D000ED97C501B4010E94F40880921401909205
:1035E0001501A0921601B0921701ED960CAD1DAD1C
:1035F0002EAD3FADED970093100110931101209374
:103600001201309313016CCF809114019091150138
:10361000A0911601B0911701A5019401281B390B47
:103620004A0B5B0BC358DF4F288339834A835B8384
:10363000CD57D0408091100190911101A0911201BD
:10364000B0911301ED960CAD1DAD2EAD3FADED97D4
:10365000081B190B2A0B3B0BCF57DF4F088319832D
:103660002A833B83C158D040C358DF4F288139811A
:103670004A815B81CD57D040CA01B9010E941F2CFD
:103680006B017C01CF57DF4F288139814A815B81F3
:10369000C158D040CA01B9010E941F2C6C0D7D1D7C
:1036A0008E1D9F1D0E94E52D0E94152F0E94B42D96
:1036B00016E0603371058105910578F0683811E0F6
:1036C00071078105910508F0D0C023E09695879594
:1036D000779567952A95D1F7162F33243394212FA8
:1036E00030E050E040E0C757DF4F288339834A83FA
:1036F0005B83C958D040632D70E090E080E00E9469
:10370000E32D6B017C01C757DF4F688179818A8186
:103710009B81C958D0400E94E52D9B01AC01C70197
:10372000B6010E943B2D6B017C01AC019B010E9404
:10373000CA2C9B01AC0160E070E080E490E40E9440
:10374000C92C2B013C01A7019601C701B6010E94BB
:103750009A2E9B01AC01C301B2010E949A2E2B014B
:103760003C01131509F483C065E070E080E090E04F
:103770000E94B30B9B01AC01225031094109510950
:10378000CB57DF4F288339834A835B83C558D040AA
:1037900065E070E080E090E00E94B30B6B017C017B
:1037A00032E0C31AD108E108F108CF57DF4F688132
:1037B00079818A819B81C158D0400E94E52DA30167
:1037C00092010E949A2E0E94AD2D209110013091FD
:1037D00011014091120150911301620F731F841F58
:1037E000951FC60ED71EE81EF91EC358DF4F68810D
:1037F00079818A819B81CD57D0400E94E52DA3011C
:1038000092010E949A2E0E94AD2D4090140150907A
:1038100015016090160170901701640D751D861DCD
:10382000971DCB57DF4F288139814A815B81C5586D
:10383000D040620F731F841F951F00E0A7019601FF
:103840000E94F40865E070E080E090E00E94B30B15
:103850006E5F7F4F8F4F9F4F882799270E941B07CE
:103860003394131508F047CF81CE10E336CFCB57F2
:10387000DF4F188219821A821B82C558D040C12C92
:10388000D12C760192CF62EC72E0C7010E945730D2
:103890006C01892B09F00AC185E0E5EAF1E0DE015F
:1038A00011965D0101900D928A95E1F7FE01369621
:1038B00083E0DF011D928A95E9F77E01B9E6EB0E00
:1038C000F11C88248394912CF701918280829E01BF
:1038D0002B593F4FE7963FAF2EAFE797A7961FAE06
:1038E0001EAEA797AE014F595F4FE9965FAF4EAF3F
:1038F000E997A3961FAE1EAEA3975F934F933F9396
:103900002F93FF92EF92BF92AF9286EA92E09F933D
:103910008F931F930F930E949E30C5010E947F0BCF
:10392000382E0FB6F894DEBF0FBECDBFD7018D91F4
:103930009C9111971816190614F08D929C920E9472
:10394000CE09232C2094F70180819181C816D906D5
:103950000CF0A9C08091A00583298093A005832D38
:103960000E942508A3966EAD7FADA397A7968EAC57
:103970009FACA797861697060CF046C0181419043A
:103980000CF042C06F5F7F4F072E000C880B990B25
:10399000092C000CAA08BB0886169706A806B906CB
:1039A00054F4681979098A099B090E94B30B860EA1
:1039B000971EA81EB91E84010E94FE072B013C0120
:1039C0004801B12CA12C0E94FE07641975098609D3
:1039D0009709681579058A059B0508F043C00E9480
:1039E000FF0E8823C1F044E050E06FEF71E080E209
:1039F00096E00E946030892B51F40E94AD0986EB5D
:103A000092E00E945F0DD3CB0DE210E0D5CF86E1AE
:103A100092E00E943B0E82E299E00E94DC06892B34
:103A2000D1F084E090E00E94AB088823A1F080EE02
:103A300094E00E946C0E882351F044E050E06FEF58
:103A400071E080EE94E00E946030892BB1F286E153
:103A500092E00E943B0E62E070E080E090E00E9405
:103A60001B07B1CF832D0E9433088091A0058221CE
:103A70008093A005FFEFCF1ADF0AD7018D919C91AB
:103A8000C816D9060CF05FCF60E570E080E090E0EA
:103A90000E94B30B645C7F4F8F4F9F4F88279927FD
:103AA0000E941B0750CF82EC92E0A4CB69EC72E03D
:103AB000C7010E945730892B79F40E94CE09C801B2
:103AC0000E947F0B9091A005982B9093A0050E94D7
:103AD000250889EC92E08ECB6FEC72E0C7010E9462
:103AE0005730892B89F40E94CE09C8010E947F0BB0
:103AF000182F0E94330810958091A0051823109369
:103B0000A0058FEC92E076CB63ED72E0C7010E94D6
:103B10005730892B09F09AC05E01B5E6AB0EB11C97
:103B2000F501118210827E01F1E6EF0EF11CD70142
:103B30001D921C9285E0E5EAF1E09E012F5F3F4F68
:103B40006901D90101900D928A95E1F7FE0136963F
:103B500083E0DF011D928A95E9F73F932F93FF924F
:103B6000EF92BF92AF9289ED92E09F938F931F9354
:103B70000F930E949E300FB6F894DEBF0FBECDBFEC
:103B800002970CF45EC0C6010E947F0B182F0E94A2
:103B9000CE097090A005812F0E9425086CE370E08B
:103BA00080E090E00E941B07D701CD90DC900D2CA7
:103BB000000CEE08FF088091100190911101A09176
:103BC0001201B0911301C80ED91EEA1EFB1EF501A9
:103BD00080809180092C000CAA08BB0880911401F8
:103BE00090911501A0911601B0911701880E991EB0
:103BF000AA1EBB1E00E0A7019601C501B4010E94E8
:103C0000F4088092140190921501A0921601B092CE
:103C10001701C0921001D0921101E0921201F092AE
:103C200013016CE370E080E090E00E941B07812F9D
:103C30000E943308109517211093A00583ED92E0A0
:103C4000D9CA87E594E00E943B0EB1CA63EE72E0E8
:103C5000C7010E945730892BC9F4C8010E94ED2B7F
:103C6000082F2091100130911101409112015091C3
:103C700013016091140170911501809116019091CA
:103C800017010E94F40883EE92E0B4CA6AEE72E073
:103C9000C7010E945730892B09F0DDC0C8010E947E
:103CA000ED2B8C011816190614F004EF11E00E9498
:103CB000FE07ED966CAF7DAF8EAF9FAFED97C12C39
:103CC000D12C7601312C212C812C912C540198017E
:103CD000110F440B550BC358DF4F288339834A8398
:103CE0005B83CD57D04000E012E00E94FE07ED96C6
:103CF0002CAD3DAD4EAD5FADED97621B730B840BEC
:103D0000950BC358DF4F288139814A815B81CD579C
:103D1000D040621773078407950708F07FC00E94A0
:103D2000FE072B013C010E94FE07641975098609F4
:103D300097096A30710581059105E0F40E94A4039A
:103D40009C01325037FF03C09801281B390BC90171
:103D5000032E000CAA0BBB0B880E991EAA1EBB1EBD
:103D60004FEFC41AD40AE40AF40A22163306D8F62E
:103D70001901D9CF61E070E080E090E00E941B075C
:103D800082E299E00E94DC06892BD9F082E390E080
:103D90000E94AB088823A9F080E495E00E946C0E95
:103DA000882359F044E050E06FEF71E080E495E043
:103DB0000E946030892B09F4D8C986E192E00E9404
:103DC0003B0E0E94FF0E882309F48FCF44E050E0A1
:103DD0006FEF71E080E296E00E946030892B79F409
:103DE00085E898E090938106809380068FEF91E0BC
:103DF0000E9473141092810610928006D8C985E83B
:103E000098E0909381068093800686E192E00E947C
:103E10003B0E109281061092800667CFC114D10428
:103E2000E104F10499F0C501B401A70196010E94D3
:103E30002F2C3F922F925F934F933F932F938FEEB0
:103E400092E09F938F931F9280E4F9C920E030E0C5
:103E500040E050E0EECF60E473E0C7010E945730CD
:103E6000892B09F062C07E01B9E6EB0EF11C8CE3F0
:103E700090E0F701918380836E01F5E6CF0ED11CAF
:103E800084E690E0A0E0B0E0F60180839183A28315
:103E9000B3835E01F1E6AF0EB11C80E395E7A0E0CD
:103EA000B0E0F50180839183A283B383BF92AF9288
:103EB000DF92CF92FF92EF9286E093E09F938F93F1
:103EC0001F930F930E949E30D5012D913D914D91EE
:103ED0005C91F60160817181D7018D919C910E9466
:103EE00097130FB6F894DEBF0FBECDBF8130A9F493
:103EF0000E94FE079F938F937F936F9381E193E0DE
:103F00009F938F931F9280E48F938E010F5F1F4FBB
:103F10001F930F930E946E309AC9823019F488E281
:103F200093E06FCD88E393E08ECE69E773E0C7013D
:103F30000E945730892B09F016C16E0123E7C20E8B
:103F4000D11C8CE390E0D6018D939C93FE01EF5839
:103F5000FF4FE796FFAFEEAFE79781E090E0E39683
:103F60009FAF8EAFE3975E01F5E6AF0EB11C84E61E
:103F700090E0A0E0B0E0F50180839183A283B38359
:103F80004E01F1E68F0E911C80E395E7A0E0B0E0D2
:103F9000F40180839183A283B3833E01FFE66F0E19
:103FA000711C80E590E0D3018D939C937E01BDE66A
:103FB000EB0EF11C84EB90E0F701918380831E01EE
:103FC000FBE62F0E311C8EE190E0D1018D939C9386
:103FD0002E01B9E64B0E511C8AE590E0F201918367
:103FE00080835F924F923F922F92FF92EF927F9247
:103FF0006F92E796FFADE797FF93E6962FADE697B2
:104000002F939F928F92BF92AF92DF92CF9285E4CF
:1040100093E09F938F931F930F930E949E30D40140
:104020002D913D914D915C91F50160817181D60199
:104030008D919C910E9497130FB6F894DEBF0FBE2E
:10404000CDBF823019F48FE593E0DBCC833019F4D7
:1040500081E793E0F8CDD7016D917C916F5F7F4F41
:10406000072E000C880B990BF301C080D1800D2C1A
:10407000000CEE08FF08C616D706E806F90654F449
:104080006C197D098E099F090E94B30BC60ED71EBD
:10409000E81EF91ED2016D917C916F5F7F4F072E54
:1040A000000C880B990BF10180809180092C000C89
:1040B000AA08BB0886169706A806B90654F468191C
:1040C00079098A099B090E94B30B860E971EA81EC8
:1040D000B91EC701B601882799270E941B07E396DE
:1040E0008EAD9FADE39712E08230910521F014E090
:1040F000039709F011E00E94CE090091A005812FDD
:104100000E942508C501B401882799270E941B0732
:10411000812F0E943308109510231093A0050E9450
:10412000FE079F938F937F936F93BF92AF929F925F
:104130008F92FF92EF92DF92CF9280E893E09F936D
:104140008F931F9280E58F938E010F5F1F4F1F93F8
:104150000F930E946E30C8010E945F0D89E793E0C3
:104160000E94731477C881EA93E06DCD1F920F927D
:104170000FB60F9211242F933F934F935F936F933A
:104180007F938F939F93AF93BF93CF93EF93FF93BF
:10419000C091E1008091E100837F8093E100C3FF43
:1041A0000FC01092E90081E08093EB001092EC00C8
:1041B00082E38093ED001092830688E08093F00004
:1041C000C2FF1AC00E942F048091BD05882341F0D0
:1041D0008091BD0581508093BD05811101C05D9A1C
:1041E00080918206882341F08091820681508093DD
:1041F0008206811101C0289AC4FF23C08091E20089
:104200008E7E81608093E2008091E1008F7E8093BA
:10421000E1008091BE058E7E80618093BE05FF9196
:10422000EF91CF91BF91AF919F918F917F916F91BE
:104230005F914F913F912F910F900FBE0F901F9064
:104240001895C0FFECCF8091E2008E7E8061809354
:10425000E2008091E1008E7E8093E1008091BE05B6
:104260008E7E8160DACF1F920F920FB60F921124CB
:10427000CF92DF92EF92FF920F931F932F933F9372
:104280004F935F936F937F938F939F93AF93BF935E
:10429000EF93FF93CF93DF93CDB7DEB76C97DEBF7D
:1042A000CDBF1092E9008091E80083FF25C068E04F
:1042B000CE0145960E94FC0482EF8093E8008D8930
:1042C00087FF39C09091E80090FFFCCF982F90763F
:1042D00009F034C19E894F89588D2F89F88C91112E
:1042E00031C0803861F58091BF058093F100109254
:1042F000F1008EEF8093E8006C960FB6F894DEBF65
:104300000FBECDBFDF91CF91FF91EF91BF91AF91E4
:104310009F918F917F916F915F914F913F912F91DD
:104320001F910F91FF90EF90DF90CF900F900FBEF5
:104330000F901F9018959EEF9093E800C7CF1092B2
:10434000F100D5CF913059F48111D3CF41305105CF
:1043500081F68091BF058D7F8093BF05CACF9330D2
:1043600049F48111C6CF4130510519F68091BF053E
:104370008260F2CF953041F48091E80080FFFCCF5D
:1043800020682093E300B5CF963009F0A9C00B8DCB
:104390001C8D22E01092E9001092BB051092BA0524
:1043A000F2122EC01092B9051092B8050E946E0547
:1043B0001F8299E09983FA8291E09E8390EA988720
:1043C0009AEF99872091BA053091BB05275F3F4F3F
:1043D0003C832B838D831092E9001092BB051092D1
:1043E000BA051093B9050093B80549E050E0BE0145
:1043F0006F5F7F4F80E00E94C5040E946E0579CFF9
:104400001093B9050093B8050E945A05DC01129675
:104410000D911C910115110509F451C1D801ED91BF
:10442000FC910480F581E02DBE016B5E7F4FC801D9
:104430000995009709F03EC1F80100851185EACF82
:10444000F3E0FF120EC08F89882309F440C0823048
:1044500061F440E860E185E891E00E9492048111F6
:1044600048CF81E28093EB0047CF813029F440E8C8
:104470006BE089E791E0F1CF833099F70E945A050C
:10448000DC011296ED90FC908E010F5F1F4F6801CA
:10449000E114F10479F0D701ED91FC910680F781E8
:1044A000E02DB801C7010995080F111DF701E0843F
:1044B000F184EECFD8011C92F60101900020E9F7BB
:1044C0003197BF016C197D0940E0C601C6CF63E694
:1044D00071E0FB01449150E080E80E94C50409CFDF
:1044E000973009F4BECF983021F481E08093F10039
:1044F00000CF993009F0FDCE837009F0B2CFEAE425
:10450000F1E081E031E096E32191222371F0809384
:10451000E9003093EB00DF0111972C912093EC0020
:104520009093ED008F5F873079F78EE78093EA00F4
:104530001092EA008F8980938306DBCE8B8D9C8D51
:104540001092E9001092BB051092BA059093B9053C
:104550008093B805898D811192C08E899D89913A89
:1045600049F4813209F07DCF47E050E061E471E029
:1045700080E0B3CF913209F074CF833269F48F8930
:10458000988DB0E0A0E08093000190930101A0938A
:104590000201B0930301ADCE803269F48091E8004E
:1045A00082FFFCCF67E081E491E00E94FC048BEF86
:1045B0008093E8009ECE823209F09BCE8F89809353
:1045C0004801EEEFFFE7859194918B3F9C4D51F1AF
:1045D000E0E0F8E08091410190914201A091430117
:1045E000B0914401803B9440A105B105F1F4809164
:1045F000480180FD1AC0EE3F8AE0F80789F587E799
:1046000097E791838083809160008093BC0588E167
:104610009BE00FB6F894A895809360000FBE90932E
:10462000600067CEEEEFFAE0D5CF808191818737C9
:10463000974709F05ECEA8958091600088618093CD
:1046400060008091BC0580936000EE3F2AE0F20795
:1046500089F08091FE0A9091FF0A9183808349CE70
:10466000808191818737980751F29093FF0A809358
:10467000FE0AC5CF1092FF0A1092FE0A3ACE0E949F
:104680005A05DC0112960D911C910115110509F4D2
:10469000E8CED801ED91FC910190F081E02DBE01B2
:1046A0006B5E7F4FC8010995811123CEF80100850B
:1046B0001185EBCF181619060CF41BCED2CEF1E003
:1046C000FF12BECE67E671E004CF1F920F920FB6C5
:1046D0000F9211242F933F934F935F936F937F9388
:1046E0008F939F93AF93BF93EF93FF9385E898E0E9
:1046F0000E94F005FF91EF91BF91AF919F918F9133
:104700007F916F915F914F913F912F910F900FBECD
:104710000F901F9018951F920F920FB60F921124B1
:104720002F938F939F93EF93FF93E0919508F091D0
:1047300096088081E0919B08F0919C0882FD1BC047
:10474000908180919E088F5F8F7320919F088217C0
:1047500041F0E0919E08F0E0EB57F74F958F809382
:104760009E08FF91EF919F918F912F910F900FBE17
:104770000F901F9018958081F4CF1F920F920FB663
:104780000F9211242F933F938F939F93AF93BF93D7
:104790008091A4059091A505A091A605B091A705CB
:1047A0003091A30523E0230F2D3758F50196A11D65
:1047B000B11D2093A3058093A4059093A505A09314
:1047C000A605B093A7058091A8059091A905A09191
:1047D000AA05B091AB050196A11DB11D8093A80556
:1047E0009093A905A093AA05B093AB05BF91AF9193
:1047F0009F918F913F912F910F900FBE0F901F901F
:10480000189526E8230F0296A11DB11DD2CFCF9394
:10481000DF93109288081092870888EE93E0A0E05A
:10482000B0E08093890890938A08A0938B08B09396
:104830008C0829E731E030938608209385082DEC19
:1048400030E030939208209391082CEC30E03093C4
:1048500094082093930828EC30E030939608209336
:10486000950829EC30E030939808209397082AECBB
:1048700030E030939A08209399082EEC30E0309382
:104880009C0820939B0810929E0810929F081092FB
:10489000A0081092A1081092250910922409809373
:1048A000260990932709A0932809B09329098BE83A
:1048B00091E090932309809322098FEF9FEF9093CB
:1048C0002F0980932E0981E08093760980937709E0
:1048D0002CE739E0309379092093780910927B090D
:1048E00010927A092DE931E030937309209372090F
:1048F00010927D0980937E0980937F0981EC8093DB
:104900007C090E945A05FC01818190917609482F0B
:10491000490F5527551F483051059CF5A281B38199
:10492000109709F522E739E0338322832081209311
:1049300074098093750980917709820F8083209193
:104940007809A22FB09179098A2F821B8917C8F4A0
:1049500081813D91C82FD0E0C75BDE4F38838F5FE8
:104960008183F2CFD90118962D913C911997211589
:104970003105C1F722E739E019963C932E93189739
:10498000D5CFDF91CF910895CF93DF93CDB7DEB729
:10499000AC970FB6F894DEBF0FBECDBF789484B548
:1049A000826084BD84B5816084BD85B5826085BD2B
:1049B00085B5816085BD80916E00816080936E00B9
:1049C00010928100809181008260809381008091AB
:1049D000810081608093810080918000816080935C
:1049E000800080919100826080939100809191007D
:1049F000816080939100809190008160809390000D
:104A00008091C10084608093C1008091C100826068
:104A10008093C1008091C10081608093C10080912A
:104A2000C30081608093C3008091C0008260809346
:104A3000C0008091C20081608093C20080917A00A2
:104A4000846080937A0080917A00826080937A00FB
:104A500080917A00816080937A0080917A008068EA
:104A600080937A00109283061092BF051092BE05C3
:104A70008091D70081608093D70080EA8093D8002E
:104A800089B5806189BD89B5826089BD09B400FEA0
:104A9000FDCF61E070E080E090E00E941B07809114
:104AA000D8008F7C80618093D8008091E000807F67
:104AB0008093E0008091E1008E7E8093E1008DE0A4
:104AC0008093E200559A209AE3EEF1E02491E4EC21
:104AD000F1E084918823C9F090E0880F991FFC01D0
:104AE000EA56FE4F45915491FC01EC55FE4FA591BD
:104AF000B4919FB7F894FA01808120958223808336
:104B00008C91E22FE823EC939FBFE2EEF1E0249139
:104B1000E3ECF1E08491882399F090E0880F991FED
:104B2000FC01EA56FE4FA591B491FC01EC55FE4FF5
:104B3000859194918FB7F894EC91E22BEC938FBF11
:104B400081E00E94C3038FEF9FEF90932F09809322
:104B50002E09E0919508F091960882E08083E0911B
:104B60009508F09196081082E0919108F0919208D2
:104B70001082E0919308F091940880E18083109274
:104B80009D08E0919908F0919A0886E08083E09171
:104B90009708F0919808808180618083E091970860
:104BA000F0919808808188608083E0919708F09167
:104BB0009808808180688083E0919708F091980838
:104BC00080818F7D808310927D0900E020E040E0AD
:104BD00060E0809175090E940A0810E2C12CD12C76
:104BE0007601CC0CDD1CEE1CFF1C0E94A40381701E
:104BF0009927092E000CAA0BBB0BC826D926EA263A
:104C0000FB26115071F70E94F6068B019C01C7012B
:104C1000B6016027712782279327C016D106E206C6
:104C2000F30611F00E94E2290E94AD099E012F5F58
:104C30003F4F49013E0135E1630E711CAE01495EF3
:104C40005F4F5C8F4B8FCE0149969E8F8D8FFE01FB
:104C50003F96F8A3EF8F9E01235F3F4F3AA329A30E
:104C6000AE01455F5F4F5CA34BA3CE0109969EA3A7
:104C70008DA3FE013796F8A7EFA31E01F5E02F0ED6
:104C8000311C2E0123E0420E511CAE014D5E5F4FE0
:104C90005AA749A708969CA78BA70E94E30C0E94DD
:104CA000FF0E182F8823B1F085E898E090938106D5
:104CB0008093800669EA73E080E296E00E945730B4
:104CC000892BE9F58EEA93E00E945F0D1092810630
:104CD0001092800680918C068111AEC2109148011D
:104CE0006AE070E080E090E00E941B07112309F465
:104CF0009CC20E94FE076B017C010E94FE076C199A
:104D00007D098E099F09683271058105910550F46E
:104D100088E290E00E94AB08882379F30E94180C87
:104D2000882359F380E090E0892B09F4B6CF0E94E4
:104D3000DC05882309F499CF0E9400008CCF45E060
:104D400050E06BEC73E080E296E00E946030892BCB
:104D500049F147E050E061ED73E080E296E00E94A7
:104D60006030892BF9F046E050E069ED73E080E2B5
:104D700096E00E946030892BA9F048E050E060EE98
:104D800073E080E296E00E946030892B59F048E0A1
:104D900050E069EE73E080E296E00E946030892B7B
:104DA00009F03EC26CE770E080E296E00E944C3071
:104DB000009709F4ADC07C01EFEFEE1AFE0AFC018A
:104DC000108262EF73E080E296E00E945730892BF8
:104DD00009F0AAC0FAA5FF9329A52F933CA53F93FC
:104DE0004BA54F9358A15F938F8D8F939AA19F935B
:104DF000E9A1EF93FCA1FF932BA12F933EA13F9339
:104E00004DA14F9358A55F938FA18F933F922F92FF
:104E10005F924F929F928F9287EF93E09F938F9331
:104E2000FF92EF920E949E302D813E810FB6F89442
:104E3000DEBF0FBECDBFAF80B8842115310519F498
:104E4000A114B10441F01216130624F411E0A216C5
:104E5000B3060CF410E00A9709F05FC0E981FA810B
:104E60001E161F060CF059C0CB80DC80CE16DF0664
:104E70000CF453C0112309F450C069857A8577FD7D
:104E80004CC0EB84FC84E616F7060CF446C04D8556
:104E90005E8557FD42C00F85188904171507ECF190
:104EA000AB89BC8989899A8997FD37C0A817B9074A
:104EB000A4F1F0931901E0931801D0921B01C09264
:104EC0001A0130931D0120931C01B0921F01A09282
:104ED0001E017093210160932001F0922301E09262
:104EE0002201509325014093240110932701009340
:104EF00026019093290180932801B0932B01A09360
:104F00002A011092400182EF93E00E947314DECEDA
:104F10008DEBE82E81E0F82E54CF1092400185E110
:104F200094E00E943B0ED2CE63E274E080E296E011
:104F30000E945730892B09F045C09F928F927F9233
:104F40006F9280EB92E09F938F93FF92EF920E947B
:104F50009E300FB6F894DEBF0FBECDBF029779F535
:104F60004D895E89052E000C660B770B409314016A
:104F700050931501609316017093170189819A81EE
:104F8000092E000CAA0BBB0B80931001909311010A
:104F9000A0931201B093130140930C0150930D01A3
:104FA00060930E0170930F018093080190930901A3
:104FB000A0930A01B0930B0180E294E085CE8BE2CE
:104FC00094E082CE6DE374E080E296E00E94573078
:104FD000892B09F087C038A13F934F8D4F935AA179
:104FE0005F9389A18F939CA19F93EBA1EF93FEA167
:104FF000FF932DA12F9338A53F934FA14F933F923D
:105000002F925F924F929F928F928DEF93E09F939A
:105010008F93FF92EF920E949E300FB6F894DEBFFE
:105020000FBECDBF089709F058C0E980FA80F5E6B9
:10503000EF16F10408F051C04B815C8157FD4DC063
:105040000D811E81041715070CF447C02F81388588
:10505000121613060CF041C0A985BA85A217B30732
:10506000E4F1ED85FE858B859C8597FD36C0E817BC
:10507000F9079CF16F8578896536710570F5F092B6
:105080002D01E0922C0150932F0140932E0110939B
:105090003101009330013093330120933201B093FA
:1050A0003501A09334019093370180933601F0933A
:1050B0003901E093380170933B0160933A011092FB
:1050C0003D0110923C0110923F0110923E0181E09F
:1050D000809340018DE394E018CF1092400184E466
:1050E00094E01FCF60E172E080E296E00E945730CA
:1050F000892B29F59F928F927F926F9280EB92E09D
:105100009F938F93FF92EF920E949E300FB6F89478
:10511000DEBF0FBECDBF029719F081E594E001CF4D
:1051200029813A81032E000C440B550B6D897E8931
:10513000072E000C880B990B0E94A414C7CD6BE5B9
:1051400074E080E296E00E945730892B09F068C035
:105150009F928F927F926F923C8D3F934B8D4F9396
:105160005E8D5F938D8D8F9389E094E09F938F93F5
:10517000FF92EF920E949E300FB6F894DEBF0FBEF2
:10518000CDBF049709F049C0498D5A8D57FD45C0E0
:105190006F89788D77FD41C0ED89FE891E161F0647
:1051A000E4F529813A8112161306BCF580910601B7
:1051B000909107018E1B9F0B8417950770F18091CA
:1051C000040190910501821B930B8617970728F124
:1051D000260F371F21503109032E000C440B550BAD
:1051E000072E000C880B990B0E94CD0B6B017C01E4
:1051F000698D7A8D2D893E89260F371F21503109FF
:10520000032E000C440B550B072E000C880B990B3A
:105210000E94CD0BA70196018FCF83E694E081CE4B
:1052200080E296E00E94831851CD61E070E080E05A
:1052300090E00E941B0776CD82E299E00E94DC0696
:10524000892B09F46FCD82E390E00E94AB0888239C
:1052500009F468CD80EC95E00E946C0E882339F04B
:105260000E94FE0780EC95E00E9483185BCD0E94AF
:10527000180C811157CD0E94C3036EE170E080E0ED
:1052800090E00E941B0781E00E94C3034BCD8F92E8
:105290009F92AF92BF92CF92DF92EF92FF92CF9305
:1052A000DF93EC01688179818A819B8161157105A9
:1052B0008105910521F464E279ED8BE597E02DE11C
:1052C00033EF41E050E00E94512C49015A019B010B
:1052D000AC01A7EAB1E40E94702C6B017C01ACEE3A
:1052E000B4EFA50194010E947E2CC60ED71EE81EC5
:1052F000F91EF7FE06C081E0C81AD108E10880E86F
:10530000F80AC882D982EA82FB82C701B6019F7778
:10531000DF91CF91FF90EF90DF90CF90BF90AF9053
:105320009F908F9008958F929F92AF92BF92CF924D
:10533000DF92EF92FF926091500170915101809144
:10534000520190915301611571058105910521F478
:1053500064E279ED8BE597E02DE133EF41E050E039
:105360000E94512C49015A019B01AC01A7EAB1E40A
:105370000E94702C6B017C01ACEEB4EFA50194018E
:105380000E947E2CC60ED71EE81EF91EF7FE06C030
:1053900081E0C81AD108E10880E8F80AC0925001FB
:1053A000D0925101E0925201F0925301C701B6012F
:1053B0009F77FF90EF90DF90CF90BF90AF909F903E
:1053C0008F90089560935001709351018093520122
:1053D000909353010895B0E0A0E0E1EFF9E20C945E
:1053E000842C5C016B017A016115710519F0FB01D8
:1053F00091838083E114F10451F0C70102978397F0
:1054000030F040E030E020E090E072C05E01E50165
:105410002196F5011081812F90E00E940B2C892BA1
:10542000A9F71D3201F52196F501118101E0E11482
:10543000F10409F4DAC0F0E1EF16F10409F082C0DA
:10544000103359F488818F7D883509F076C0198131
:1054500022960260F0E1EF2EF12C812C912CA12CF0
:1054600088E0B82E8CC01B3221F4E5012296F501AC
:10547000118100E0DCCFEAE0EE16F10409F4BBC0D4
:10548000F0E1EF16F10409F06DC0E7CF78E0E72E08
:10549000F12C812C912CA12C60E1B62E70C03FE93B
:1054A000310F3A3128F439EA332E80C021E09AC016
:1054B000302F3170C114D10431F0222309F121972A
:1054C000F601D183C08327FF21C060E070E080E057
:1054D00090E8311104C06FEF7FEF8FEF9FE722E27A
:1054E00030E03093810920938009462F372F282FF1
:1054F000642F732F822FCDB7DEB7E1E10C94A02C7F
:1055000001FF04C02297F601D183C083332341F009
:1055100090958095709561957F4F8F4F9F4FE5CF08
:1055200097FFE3CF82E290E0909381098093800916
:105530006FEF7FEF8FEF9FE7D8CF10E3E114F10417
:1055400009F4A4CF28E0E216F10409F4A2CF0CF08C
:1055500092CF812C912CA12CE0E4BE2E82E0E816A3
:10556000F10469F060E070E080E090E897010F2CB2
:10557000000C440B550B0E942F2C49015A0120E0CE
:1055800060E070E0CB0127010F2C000C6608770863
:10559000FE0150ED352E310E39E0331540F43FEB6E
:1055A000310F3A3108F07BCF49EC342E310E3E14E6
:1055B0001F040CF07DCF27FD15C086169706A806A0
:1055C000B90678F0A30192010E941F2C630D711D92
:1055D000811D911D61307105810520E8920708F455
:1055E00065CF2FEF21961081D3CF103309F42ACF46
:1055F0002AE0E22EF12C9CEC892E982CA82C9CE021
:10560000B92EBDCFB0E0A0E0E8E0FBE20C94842C22
:105610005C016B017A016115710519F0FB01918341
:105620008083E114F10449F0C7010297839728F0C1
:1056300060E070E0CB019CC05E01E5012196F501C0
:105640001081812F90E00E940B2C892BA9F71D322D
:1056500009F056C02196F501118101E0E114F10431
:1056600009F4AEC0F0E1EF16F10409F08EC010337A
:1056700041F488818F7D883509F083C01981229695
:105680000260E0E1EE2EF12C88248A94982CA82C5C
:10569000FFE0BF2E20E060E070E0CB0127010F2C7F
:1056A000000C66087708FE0150ED352E310E39E00A
:1056B000331538F43FEB310F3A31A0F549EC342E75
:1056C000310E3E141F04BCF52F3FB9F08616970625
:1056D000A806B90670F1A30192010E941F2C232D88
:1056E00030E050E040E0620F731F841F951F621787
:1056F000730784079507E8F021E021961081D3CF46
:105700001B3221F4E5012296F501118100E0A6CFBC
:1057100078E0E72EF12C88248A94982CA82C6FE14D
:10572000B62EB8CF3FE9310F3A3128F439EA332E9B
:10573000C7CF2FEFE2CFC114D10431F02223E9F01B
:105740002197F601D183C08300FF07C09095809513
:10575000709561957F4F8F4F9F4F2F3F49F482E2A5
:1057600090E090938109809380096FEF7FEFCB01E8
:10577000CDB7DEB7E1E10C94A02C01FFE5CF229775
:10578000E0CF10E3E114F10419F23AE0E316F1047A
:10579000E9F080E1E816F10409F473CFE8E0EE16D1
:1057A000F10409F4B8CF6FEF7FEFCB0197010F2C15
:1057B000000C440B550B0E942F2C49015A016ACF53
:1057C000103309F456CF9AE0E92EF12C89E9882E9E
:1057D000982CA82C89E1B82E5DCFFC018827992749
:1057E000E89421912032E9F3293010F02E30C8F3EB
:1057F0002B3241F02D3239F4689404C00E94142CED
:10580000820F911D219120532A30C0F31EF49095F0
:1058100081959F4F089591110C941C2C803219F0A2
:1058200089508550C8F708957AE0979F902D879FFB
:10583000802D910D11240895992788270895DB0163
:105840008F939F930E94702CBF91AF91A29F800D68
:10585000911DA39F900DB29F900D11240895A1E278
:105860001A2EAA1BBB1BFD010DC0AA1FBB1FEE1FDA
:10587000FF1FA217B307E407F50720F0A21BB30B25
:10588000E40BF50B661F771F881F991F1A9469F7A1
:1058900060957095809590959B01AC01BD01CF01FD
:1058A0000895052E97FB1EF400940E94682C57FD66
:1058B00007D00E942F2C07FC03D04EF40C94682CC8
:1058C00050954095309521953F4F4F4F5F4F08952C
:1058D00090958095709561957F4F8F4F9F4F08955C
:1058E0000E94BA2CA59F900DB49F900DA49F800D8F
:1058F000911D11240895B7FF0C94702C0E94702CF8
:10590000821B930B08952F923F924F925F926F925A
:105910007F928F929F92AF92BF92CF92DF92EF923F
:10592000FF920F931F93CF93DF93CDB7DEB7CA1BC0
:10593000DB0B0FB6F894DEBF0FBECDBF09942A88EB
:10594000398848885F846E847D848C849B84AA8493
:10595000B984C884DF80EE80FD800C811B81AA8120
:10596000B981CE0FD11D0FB6F894DEBF0FBECDBFEB
:10597000ED010895A29FB001B39FC001A39F700DD8
:10598000811D1124911DB29F700D811D1124911D47
:1059900008955058BB27AA270E94E12C0C945B2E37
:1059A0000E944D2E38F00E94542E20F039F49F3F73
:1059B00019F426F40C944A2E0EF4E095E7FB0C94AF
:1059C000442EE92F0E946C2E58F3BA176207730712
:1059D0008407950720F079F4A6F50C948E2E0EF42A
:1059E000E0950B2EBA2FA02D0B01B90190010C01EF
:1059F000CA01A0011124FF27591B99F0593F50F407
:105A0000503E68F11A16F040A22F232F342F44275E
:105A1000585FF3CF469537952795A795F040539556
:105A2000C9F77EF41F16BA0B620B730B840BBAF026
:105A30009150A1F0FF0FBB1F661F771F881FC2F791
:105A40000EC0BA0F621F731F841F48F487957795A5
:105A50006795B795F7959E3F08F0B0CF9395880F5F
:105A600008F09927EE0F9795879508950E94202EAC
:105A700008F481E008950E944F2D0C945B2E0E9443
:105A8000542E58F00E944D2E40F029F45F3F29F02B
:105A90000C94442E51110C948F2E0C944A2E0E947B
:105AA0006C2E68F39923B1F3552391F3951B550B95
:105AB000BB27AA2762177307840738F09F5F5F4FE1
:105AC000220F331F441FAA1FA9F335D00E2E3AF020
:105AD000E0E832D091505040E695001CCAF72BD038
