:1070000055C000006EC000006CC000006AC00000E7
:1070100068C0000066C0000064C0000062C00000DC
:1070200060C000005EC00000A9C400005AC000009B
:1070300058C0000056C0000054C0000052C00000FC
:1070400050C00000DDC000004CC000004AC000007D
:1070500048C0000046C0000044C0000042C000001C
:1070600040C000003EC000003CC000003AC000002C
:1070700038C0000036C0000034C0000032C000003C
:1070800030C000002EC000002CC000002AC000004C
:1070900028C0000026C0000024C0000022C000005C
:1070A00020C000001EC000001CC0000011241FBE34
:1070B000CFEFDAE0DEBFCDBF11E0A0E0B1E0E8E560
:1070C000FEE702C005900D92A63AB107D9F721E07C
:1070D000A6EAB1E001C01D92AC3BB207E1F759D37B
:1070E000B9C68ECF84E08093E9008091E80085FFE7
:1070F00003C08091F10008958091E8008B77809320
:10710000E8008091E80082FDF0CF8EB38111F9CFC5
:1071100080E0089593E09093E9009091E80095FF56
:107120000AC08093F1005D9884E690E09093AB01F3
:107130008093AA0108959091E8009E779093E800CB
:107140009091E80090FDEDCF9EB39111F9CF089595
:10715000F89410926F0010928100109285001092A6
:10716000840081E085BF15BE47985D9A289A0C94EB
:10717000000008952091B0013091B1012F5F3F4F81
:107180003093B1012093B001832F37FF02C08EEFFF
:10719000831B880F821710F447980895479A089523
:1071A00084B7877F84BF0FB6F894A895809160005C
:1071B000886180936000109260000FBE90E880E0CC
:1071C0000FB6F89490936100809361000FBE81E048
:1071D00085BF82E085BF3F9A209A559AE1E6F0E0AC
:1071E0009083108247985D9A289A109289009AEFAE
:1071F0009093880080936F0083E080938100A6C302
:107200001F920F920FB60F9211242F938F939F937B
:10721000EF93FF9310928500109284008091AA0151
:107220009091AB01009741F001979093AB0180934F
:10723000AA01892B09F45D9A8091A8019091A90176
:10724000009741F001979093A9018093A801892BA1
:1072500009F4289AF0E0E0E085919491019649F0D4
:107260008091A6019091A70101969093A701809328
:10727000A601FF91EF919F918F912F910F900FBEDB
:107280000F901F90189542E061EC82E0F4D242E149
:1072900061E883E0F0D242E160E884E0ECC28091F2
:1072A000B401982F9F779132B9F49091B501903243
:1072B000A1F0913289F4813A79F48091E800877FD6
:1072C0008093E80067E070E083E091E008D480916B
:1072D000E8008B778093E80008958132E9F7809188
:1072E000E800877F8093E80067E070E083E091E04A
:1072F0004FD48091E8008E77EDCF6F927F928F927E
:107300009F92AF92BF92CF92DF92EF92FF920F9334
:107310001F93CF93DF9384E08093E9008091E8008E
:1073200082FF28C2289884E690E09093A901809378
:10733000A801D8DEC82F853451F58CE393E79093EC
:10734000A7018093A60107B600FCFDCFF999FECFF7
:1073500081E180935700E8958DE0DCDE83E0809347
:10736000E9009091E8008091E8008E778093E80032
:1073700095FFF3C18091E80080FFF9C184E080931C
:10738000E9008091E8008B778093E800F3C18435B1
:1073900011F4A8DEE1CF8C34F9F28035E9F28437BC
:1073A00021F484E4B7DE80E0D8CF89E5C136A9F2C4
:1073B000C134D1F497DEC82F95DE2C2F30E0322F68
:1073C0002227330F90E0880F991F822B932B092ED1
:1073D000000CAA0BBB0B8093AC019093AD01A09362
:1073E000AE01B093AF01B8CF83E5C03709F4B5CF94
:1073F000C33549F4CCE9D1E089918CDE21E0C33A70
:10740000D207D1F7ABCFC63521F481E383DE80E329
:10741000A4CFC33731F487E87DDE85E97BDE8EE1DA
:107420009CCFC536B9F4F0E0E0E083E095E08093CE
:107430005700E89507B600FCFDCF90935700E895FC
:1074400007B600FCFDCFE058FF4FE11520E7F2073B
:1074500071F782CF89E0E1E0F0E0C23779F089E0AE
:10746000F0E0E0E0C63451F089E0E3E0F0E0CE3453
:1074700029F0C13539F489E0E2E0F0E0809357006B
:1074800084916BCFC23631F489E544DE80E042DE80
:1074900080E863CFC23419F0C73609F0CEC010922D
:1074A000A7011092A6011EDE082F10E0102F002762
:1074B00019DE082B17DED82F8BEB8D0F823010F0E2
:1074C0008FE34BCF10926F00C73609F045C081E1C2
:1074D00080935700E895C0E0BB24B3940150110994
:1074E00020F482E080936F0039CFC090AC01D0903F
:1074F000AD01E090AE01F090AF01D634B9F4EC2FBD
:10750000F0E0EC29FD29849105DECC2369F082E0CE
:10751000C80ED11CE11CF11CC092AC01D092AD018F
:10752000E092AE01F092AF01CB25D8CFD701C601D2
:10753000B695A7959795879577D4ECDDE2E0CE0ECA
:10754000D11CE11CF11CC092AC01D092AD01E092C3
:10755000AE01F092AF01C2CF8090AC019090AD012E
:10756000A090AE01B090AF01D63441F483E0F401B5
:1075700080935700E89507B600FCFDCF712CC0E062
:107580006624639424C0D63409F034C0CC2379F146
:10759000C090AC01D090AD01E090AE01F090AF0191
:1075A000A1DD982F872DF6010C0160925700E89518
:1075B0001124F2E0CF0ED11CE11CF11CC092AC01F1
:1075C000D092AD01E092AE01F092AF01C62501501C
:1075D0001109C8F6D63441F485E0F40180935700D0
:1075E000E89507B600FCFDCF8DE094DD7ACF7ADD1B
:1075F000782EECCF77DD682F8091AC019091AD01B2
:10760000A091AE01B091AF01B695A79597958795DA
:1076100013D48091AC019091AD01A091AE01B091D5
:10762000AF010296A11DB11D8093AC019093AD01F5
:10763000A093AE01B093AF01CACFC33471F4C0912F
:10764000AC01D091AD014EDD90E021E0FE010C01D6
:1076500020935700E89511247FCEC33601F5C090E2
:10766000AC01D090AD01E090AE01F090AF013ADDF9
:10767000F601E16090E021E00C0120935700E895CD
:107680001124F2E0CF0ED11CE11CF11CC092AC0120
:10769000D092AD01E092AE01F092AF015DCECD3659
:1076A00061F4E091AC01F091AD0185E08093570069
:1076B000E89507B600FCFDCF4FCEC23551F4E091FE
:1076C000AC01F091AD01C591D4918D2F23DD8C2FAC
:1076D00044CEC434D9F406DD682F8091AC0190917A
:1076E000AD01A091AE01B091AF01B695A795979568
:1076F0008795A2D38091AC019091AD01A091AE018C
:10770000B091AF010296A11DB11D65CEC436F1F452
:10771000C090AC01D090AD01E090AE01F090AF010F
:10772000D701C601B695A795979587957DD3F2DCCD
:1077300022E0C20ED11CE11CF11CC092AC01D0921F
:10774000AD01E092AE01F092AF0108CECB3109F469
:1077500005CEB6CE8EB3882369F08091E80080FF15
:10776000F9CF8091E8008E778093E80003CE8EB346
:10777000811100CEDF91CF911F910F91FF90EF907B
:10778000DF90CF90BF90AF909F908F907F906F9041
:1077900008958091000890910108109201081092BC
:1077A000000884B714BE0FB6F894A89590916000B5
:1077B000986190936000109260000FBE81FD09C037
:1077C00080FF07C0F0E0E0E085919491019609F018
:1077D000BFDCE6DC78941092A7011092A60180919C
:1077E0000201811109C08091E00081608093E00076
:1077F000AFDC90E080E0089580DDFFD28091A601AB
:107800009091A7018133954710F010920201B2DCEC
:10781000E6CF292F30E02230310571F023303105D9
:1078200081F02130310511F582E190E02AE831E064
:10783000FA013183208308958EE390E02CE431E057
:10784000F7CF882349F0813061F0823079F488E104
:1078500090E02AE031E0ECCF84E090E028E431E0F1
:10786000E7CF82E290E024E231E0E2CF90E080E0F6
:1078700030E020E0DDCF8093E900EBEEF0E08081A6
:1078800081608083EDEEF0E010826093EC00408335
:107890008091EE00881F8827881F08958091B40189
:1078A00087FF11C08091E80082FF06C08091E80048
:1078B0008B778093E80003C08EB38111F3CF0895D6
:1078C0008EB38823E1F38091E80080FFF9CF8091A7
:1078D000E8008E77EECF0F931F93CF93DF9341D0C5
:1078E00048D0C8EDD0E088818F7788838881806810
:1078F000888388818F7D888319BC1EBA1092B2015B
:1079000000EE10E0F80180818B7F808388818160A8
:10791000888342E060E080E0AEDFE1EEF0E080816D
:107920008E7F8083E2EEF0E08081816080838081C1
:1079300088608083F80180818E7F80838881806168
:107940008883DF91CF911F910F910895E7EDF0E0CB
:107950008081816080838AE482BF81E08093B3016B
:10796000BACFE8EDF0E080818E7F80831092E20054
:1079700008951092DA001092E10008951F920F927C
:107980000FB60F9211242F933F934F935F936F93F2
:107990007F938F939F93AF93BF93EF93FF938091C8
:1079A000DA0080FF17C08091D80080FF13C080915B
:1079B000DA008E7F8093DA008091D90080FF4EC07C
:1079C00080E189BD82E189BD09B400FEFDCF81E07F
:1079D0008EBB12D28091E10080FF17C08091E2003F
:1079E00080FF13C08091E2008E7F8093E20080913F
:1079F000E20080618093E2008091D80080628093F1
:107A0000D80019BC85E08EBBF7D18091E10084FFDE
:107A100030C08091E20084FF2CC080E189BD82E10A
:107A200089BD09B400FEFDCF8091D8008F7D809381
:107A3000D8008091E1008F7E8093E1008091E20088
:107A40008F7E8093E2008091E20081608093E2006B
:107A50008091B201882331F084E009C019BC1EBABC
:107A6000CBD1B8CF8091E30087FDF6CF81E08EBB0C
:107A7000C3D18091E10083FF21C08091E20083FFA8
:107A80001DC08091E100877F8093E10082E08EBB82
:107A90001092B2018091E1008E7F8093E10080918D
:107AA000E2008E7F8093E2008091E200806180930B
:107AB000E20042E060E080E0DEDE9ED1FF91EF91E7
:107AC000BF91AF919F918F917F916F915F914F91F6
:107AD0003F912F910F900FBE0F901F901895FC01B2
:107AE0008091BA019091BB0186179707A0F06115AC
:107AF000710529F49091E8009E779093E80090E05A
:107B00006115710551F4911108C08091E80082FF60
:107B100034C080E00895BC01F2CF8EB38823B1F168
:107B2000853081F18091E80083FD2EC08091E800CE
:107B300082FDEBCF8091E80080FFE2CF2091F3003F
:107B40008091F200322F282F6115710519F028302D
:107B5000310558F091E02830310509F090E020918E
:107B6000E8002E772093E800CBCF81918093F1003D
:107B7000615071092F5F3F4FE7CF8EB3882331F0FB
:107B8000853019F683E0089581E0089582E0089534
:107B9000FC016115710529F49091E8009B779093A1
:107BA000E8006115710531F48091E80080FF1EC086
:107BB00080E008958EB3882311F18530E1F0809143
:107BC000E80083FD1AC08091E80082FFEACF20918F
:107BD000F3008091F200322F282F232BE9F28091BD
:107BE000F10081936150710991F7D6CF8EB388234C
:107BF00031F08530C9F683E0089581E0089582E090
:107C000008950F931F93CF93DF9300D0CDB7DEB7C6
:107C1000E4EBF1E08091F100819381E0EC3BF80727
:107C2000C9F73DDB8091E80083FF8AC08091B401F1
:107C30009091B5019A3008F083C0E92FF0E0EE5D35
:107C4000F14CECC02C3E483EA03E483EA03E813E5A
:107C5000B53EA03ED33EDF3E823809F071C0809130
:107C6000B80187708093E9008091EB0085FB88273D
:107C700080F91092E9009091E800977F9093E800D6
:107C80008093F1001092F1008091E8008E7722C07D
:107C9000282F2D7F09F054C0823009F051C0809107
:107CA000B601811112C08091B801877009F448C0F3
:107CB0008093E9002091EB0020FF07C0933071F41E
:107CC0008091EB0080628093EB001092E90080913C
:107CD000E800877F8093E800E1DD32C09091EB00FF
:107CE00090619093EB0021E030E001C0220F8A9573
:107CF000EAF72093EA001092EA008091EB00886096
:107D0000E2CF81111DC01091B6011F770FB7F89413
:107D10008091E800877F8093E800C0DD8091E800D3
:107D200080FFFCCF8091E3008078812B8093E3007B
:107D300080688093E30082E0111183E08EBB0FBF67
:107D40008091E80083FF0AC08091EB0080628093FD
:107D5000EB008091E800877F8093E8000F900F9000
:107D6000DF91CF911F910F9108958058823040F795
:107D7000AE014F5F5F4F6091B8018091B601909165
:107D8000B70147DDBC01892BD9F29091E800977FBC
:107D90009093E80089819A81A2DE8091E8008B7738
:107DA0008093E800CDCF803859F68091E800877F36
:107DB0008093E8008091B2018093F10065CF81113A
:107DC000BFCF9091B601923008F0BACF8091E80011
:107DD000877F8093E8009093B20160DD8091B201CB
:107DE000882311F084E005C08091E30087FDFACF7D
:107DF00081E08EBB48DAA4CF0895CF938EB3882359
:107E000059F0C091E900C7701092E9008091E80034
:107E100083FDF7DEC093E900CF910895EE0FFF1FB9
:107E20000590F491E02D0994F999FECF92BD81BDA2
:107E3000F89A992780B50895262FF999FECF1FBA91
:107E400092BD81BD20BD0FB6F894FA9AF99A0FBE83
:087E500001960895F894FFCF9C
:107E580077770100000000000008180355006E0045
:107E68006B006E006F0077006E002000200020007D
:107E78002000000022035500530042002000490062
:107E88004F00200062006F00610072006400200053
:107E980020002000200000000403090409023E001D
:107EA80002010080320904000001020201000524D9
:107EB80000100104240204052406000107058203BA
:107EC8000800FF09040100020A0000000705040277
:107ED80010000107058302100001120110010200C1
:107EE8000008501D5E610100020100014341544534
:067EF80052494E4100005A
:040000030000700089
:00000001FF
